{
  "contractName": "legalContract",
  "abi": [
    {
      "inputs": [
        {
          "internalType": "string",
          "name": "name",
          "type": "string"
        },
        {
          "internalType": "string",
          "name": "firstSurname",
          "type": "string"
        },
        {
          "internalType": "string",
          "name": "id",
          "type": "string"
        },
        {
          "internalType": "uint256",
          "name": "NotaryID",
          "type": "uint256"
        }
      ],
      "stateMutability": "nonpayable",
      "type": "constructor"
    },
    {
      "anonymous": false,
      "inputs": [
        {
          "indexed": true,
          "internalType": "address",
          "name": "owner",
          "type": "address"
        },
        {
          "indexed": true,
          "internalType": "address",
          "name": "approved",
          "type": "address"
        },
        {
          "indexed": true,
          "internalType": "uint256",
          "name": "tokenId",
          "type": "uint256"
        }
      ],
      "name": "Approval",
      "type": "event"
    },
    {
      "anonymous": false,
      "inputs": [
        {
          "indexed": true,
          "internalType": "address",
          "name": "owner",
          "type": "address"
        },
        {
          "indexed": true,
          "internalType": "address",
          "name": "operator",
          "type": "address"
        },
        {
          "indexed": false,
          "internalType": "bool",
          "name": "approved",
          "type": "bool"
        }
      ],
      "name": "ApprovalForAll",
      "type": "event"
    },
    {
      "anonymous": false,
      "inputs": [
        {
          "indexed": true,
          "internalType": "address",
          "name": "previousOwner",
          "type": "address"
        },
        {
          "indexed": true,
          "internalType": "address",
          "name": "newOwner",
          "type": "address"
        }
      ],
      "name": "OwnershipTransferred",
      "type": "event"
    },
    {
      "anonymous": false,
      "inputs": [
        {
          "indexed": true,
          "internalType": "address",
          "name": "from",
          "type": "address"
        },
        {
          "indexed": true,
          "internalType": "address",
          "name": "to",
          "type": "address"
        },
        {
          "indexed": true,
          "internalType": "uint256",
          "name": "tokenId",
          "type": "uint256"
        }
      ],
      "name": "Transfer",
      "type": "event"
    },
    {
      "anonymous": false,
      "inputs": [
        {
          "indexed": false,
          "internalType": "address",
          "name": "",
          "type": "address"
        },
        {
          "indexed": false,
          "internalType": "uint256",
          "name": "",
          "type": "uint256"
        }
      ],
      "name": "assetBought",
      "type": "event"
    },
    {
      "anonymous": false,
      "inputs": [
        {
          "indexed": false,
          "internalType": "address",
          "name": "",
          "type": "address"
        },
        {
          "indexed": false,
          "internalType": "uint256",
          "name": "",
          "type": "uint256"
        }
      ],
      "name": "monthlyPay",
      "type": "event"
    },
    {
      "inputs": [
        {
          "internalType": "address",
          "name": "to",
          "type": "address"
        },
        {
          "internalType": "uint256",
          "name": "tokenId",
          "type": "uint256"
        }
      ],
      "name": "approve",
      "outputs": [],
      "stateMutability": "nonpayable",
      "type": "function"
    },
    {
      "inputs": [
        {
          "internalType": "address",
          "name": "owner",
          "type": "address"
        }
      ],
      "name": "balanceOf",
      "outputs": [
        {
          "internalType": "uint256",
          "name": "",
          "type": "uint256"
        }
      ],
      "stateMutability": "view",
      "type": "function",
      "constant": true
    },
    {
      "inputs": [
        {
          "internalType": "uint256",
          "name": "tokenId",
          "type": "uint256"
        }
      ],
      "name": "getApproved",
      "outputs": [
        {
          "internalType": "address",
          "name": "",
          "type": "address"
        }
      ],
      "stateMutability": "view",
      "type": "function",
      "constant": true
    },
    {
      "inputs": [
        {
          "internalType": "uint256",
          "name": "timestamp",
          "type": "uint256"
        }
      ],
      "name": "getDay",
      "outputs": [
        {
          "internalType": "uint8",
          "name": "",
          "type": "uint8"
        }
      ],
      "stateMutability": "pure",
      "type": "function",
      "constant": true
    },
    {
      "inputs": [
        {
          "internalType": "uint8",
          "name": "month",
          "type": "uint8"
        },
        {
          "internalType": "uint16",
          "name": "year",
          "type": "uint16"
        }
      ],
      "name": "getDaysInMonth",
      "outputs": [
        {
          "internalType": "uint8",
          "name": "",
          "type": "uint8"
        }
      ],
      "stateMutability": "pure",
      "type": "function",
      "constant": true
    },
    {
      "inputs": [
        {
          "internalType": "uint256",
          "name": "timestamp",
          "type": "uint256"
        }
      ],
      "name": "getHour",
      "outputs": [
        {
          "internalType": "uint8",
          "name": "",
          "type": "uint8"
        }
      ],
      "stateMutability": "pure",
      "type": "function",
      "constant": true
    },
    {
      "inputs": [
        {
          "internalType": "uint256",
          "name": "timestamp",
          "type": "uint256"
        }
      ],
      "name": "getMinute",
      "outputs": [
        {
          "internalType": "uint8",
          "name": "",
          "type": "uint8"
        }
      ],
      "stateMutability": "pure",
      "type": "function",
      "constant": true
    },
    {
      "inputs": [
        {
          "internalType": "uint256",
          "name": "timestamp",
          "type": "uint256"
        }
      ],
      "name": "getMonth",
      "outputs": [
        {
          "internalType": "uint8",
          "name": "",
          "type": "uint8"
        }
      ],
      "stateMutability": "pure",
      "type": "function",
      "constant": true
    },
    {
      "inputs": [
        {
          "internalType": "uint256",
          "name": "timestamp",
          "type": "uint256"
        }
      ],
      "name": "getSecond",
      "outputs": [
        {
          "internalType": "uint8",
          "name": "",
          "type": "uint8"
        }
      ],
      "stateMutability": "pure",
      "type": "function",
      "constant": true
    },
    {
      "inputs": [
        {
          "internalType": "uint256",
          "name": "timestamp",
          "type": "uint256"
        }
      ],
      "name": "getWeekday",
      "outputs": [
        {
          "internalType": "uint8",
          "name": "",
          "type": "uint8"
        }
      ],
      "stateMutability": "pure",
      "type": "function",
      "constant": true
    },
    {
      "inputs": [
        {
          "internalType": "uint256",
          "name": "timestamp",
          "type": "uint256"
        }
      ],
      "name": "getYear",
      "outputs": [
        {
          "internalType": "uint16",
          "name": "",
          "type": "uint16"
        }
      ],
      "stateMutability": "pure",
      "type": "function",
      "constant": true
    },
    {
      "inputs": [
        {
          "internalType": "address",
          "name": "owner",
          "type": "address"
        },
        {
          "internalType": "address",
          "name": "operator",
          "type": "address"
        }
      ],
      "name": "isApprovedForAll",
      "outputs": [
        {
          "internalType": "bool",
          "name": "",
          "type": "bool"
        }
      ],
      "stateMutability": "view",
      "type": "function",
      "constant": true
    },
    {
      "inputs": [
        {
          "internalType": "uint16",
          "name": "year",
          "type": "uint16"
        }
      ],
      "name": "isLeapYear",
      "outputs": [
        {
          "internalType": "bool",
          "name": "",
          "type": "bool"
        }
      ],
      "stateMutability": "pure",
      "type": "function",
      "constant": true
    },
    {
      "inputs": [
        {
          "internalType": "uint256",
          "name": "year",
          "type": "uint256"
        }
      ],
      "name": "leapYearsBefore",
      "outputs": [
        {
          "internalType": "uint256",
          "name": "",
          "type": "uint256"
        }
      ],
      "stateMutability": "pure",
      "type": "function",
      "constant": true
    },
    {
      "inputs": [],
      "name": "name",
      "outputs": [
        {
          "internalType": "string",
          "name": "",
          "type": "string"
        }
      ],
      "stateMutability": "view",
      "type": "function",
      "constant": true
    },
    {
      "inputs": [],
      "name": "owner",
      "outputs": [
        {
          "internalType": "address",
          "name": "",
          "type": "address"
        }
      ],
      "stateMutability": "view",
      "type": "function",
      "constant": true
    },
    {
      "inputs": [
        {
          "internalType": "uint256",
          "name": "tokenId",
          "type": "uint256"
        }
      ],
      "name": "ownerOf",
      "outputs": [
        {
          "internalType": "address",
          "name": "",
          "type": "address"
        }
      ],
      "stateMutability": "view",
      "type": "function",
      "constant": true
    },
    {
      "inputs": [],
      "name": "publicnotary",
      "outputs": [
        {
          "internalType": "string",
          "name": "name",
          "type": "string"
        },
        {
          "internalType": "string",
          "name": "firstSurname",
          "type": "string"
        },
        {
          "internalType": "string",
          "name": "id",
          "type": "string"
        },
        {
          "internalType": "uint256",
          "name": "NotaryID",
          "type": "uint256"
        }
      ],
      "stateMutability": "view",
      "type": "function",
      "constant": true
    },
    {
      "inputs": [],
      "name": "renounceOwnership",
      "outputs": [],
      "stateMutability": "nonpayable",
      "type": "function"
    },
    {
      "inputs": [
        {
          "internalType": "address",
          "name": "from",
          "type": "address"
        },
        {
          "internalType": "address",
          "name": "to",
          "type": "address"
        },
        {
          "internalType": "uint256",
          "name": "tokenId",
          "type": "uint256"
        }
      ],
      "name": "safeTransferFrom",
      "outputs": [],
      "stateMutability": "nonpayable",
      "type": "function"
    },
    {
      "inputs": [
        {
          "internalType": "address",
          "name": "from",
          "type": "address"
        },
        {
          "internalType": "address",
          "name": "to",
          "type": "address"
        },
        {
          "internalType": "uint256",
          "name": "tokenId",
          "type": "uint256"
        },
        {
          "internalType": "bytes",
          "name": "_data",
          "type": "bytes"
        }
      ],
      "name": "safeTransferFrom",
      "outputs": [],
      "stateMutability": "nonpayable",
      "type": "function"
    },
    {
      "inputs": [
        {
          "internalType": "address",
          "name": "operator",
          "type": "address"
        },
        {
          "internalType": "bool",
          "name": "approved",
          "type": "bool"
        }
      ],
      "name": "setApprovalForAll",
      "outputs": [],
      "stateMutability": "nonpayable",
      "type": "function"
    },
    {
      "inputs": [
        {
          "internalType": "bytes4",
          "name": "interfaceId",
          "type": "bytes4"
        }
      ],
      "name": "supportsInterface",
      "outputs": [
        {
          "internalType": "bool",
          "name": "",
          "type": "bool"
        }
      ],
      "stateMutability": "view",
      "type": "function",
      "constant": true
    },
    {
      "inputs": [],
      "name": "symbol",
      "outputs": [
        {
          "internalType": "string",
          "name": "",
          "type": "string"
        }
      ],
      "stateMutability": "view",
      "type": "function",
      "constant": true
    },
    {
      "inputs": [
        {
          "internalType": "uint16",
          "name": "year",
          "type": "uint16"
        },
        {
          "internalType": "uint8",
          "name": "month",
          "type": "uint8"
        },
        {
          "internalType": "uint8",
          "name": "day",
          "type": "uint8"
        },
        {
          "internalType": "uint8",
          "name": "hour",
          "type": "uint8"
        },
        {
          "internalType": "uint8",
          "name": "minute",
          "type": "uint8"
        }
      ],
      "name": "toTimestamp",
      "outputs": [
        {
          "internalType": "uint256",
          "name": "timestamp",
          "type": "uint256"
        }
      ],
      "stateMutability": "pure",
      "type": "function",
      "constant": true
    },
    {
      "inputs": [
        {
          "internalType": "uint16",
          "name": "year",
          "type": "uint16"
        },
        {
          "internalType": "uint8",
          "name": "month",
          "type": "uint8"
        },
        {
          "internalType": "uint8",
          "name": "day",
          "type": "uint8"
        },
        {
          "internalType": "uint8",
          "name": "hour",
          "type": "uint8"
        }
      ],
      "name": "toTimestamp",
      "outputs": [
        {
          "internalType": "uint256",
          "name": "timestamp",
          "type": "uint256"
        }
      ],
      "stateMutability": "pure",
      "type": "function",
      "constant": true
    },
    {
      "inputs": [
        {
          "internalType": "uint16",
          "name": "year",
          "type": "uint16"
        },
        {
          "internalType": "uint8",
          "name": "month",
          "type": "uint8"
        },
        {
          "internalType": "uint8",
          "name": "day",
          "type": "uint8"
        }
      ],
      "name": "toTimestamp",
      "outputs": [
        {
          "internalType": "uint256",
          "name": "timestamp",
          "type": "uint256"
        }
      ],
      "stateMutability": "pure",
      "type": "function",
      "constant": true
    },
    {
      "inputs": [
        {
          "internalType": "uint16",
          "name": "year",
          "type": "uint16"
        },
        {
          "internalType": "uint8",
          "name": "month",
          "type": "uint8"
        },
        {
          "internalType": "uint8",
          "name": "day",
          "type": "uint8"
        },
        {
          "internalType": "uint8",
          "name": "hour",
          "type": "uint8"
        },
        {
          "internalType": "uint8",
          "name": "minute",
          "type": "uint8"
        },
        {
          "internalType": "uint8",
          "name": "second",
          "type": "uint8"
        }
      ],
      "name": "toTimestamp",
      "outputs": [
        {
          "internalType": "uint256",
          "name": "timestamp",
          "type": "uint256"
        }
      ],
      "stateMutability": "pure",
      "type": "function",
      "constant": true
    },
    {
      "inputs": [
        {
          "internalType": "uint256",
          "name": "tokenId",
          "type": "uint256"
        }
      ],
      "name": "tokenURI",
      "outputs": [
        {
          "internalType": "string",
          "name": "",
          "type": "string"
        }
      ],
      "stateMutability": "view",
      "type": "function",
      "constant": true
    },
    {
      "inputs": [
        {
          "internalType": "address",
          "name": "from",
          "type": "address"
        },
        {
          "internalType": "address",
          "name": "to",
          "type": "address"
        },
        {
          "internalType": "uint256",
          "name": "tokenId",
          "type": "uint256"
        }
      ],
      "name": "transferFrom",
      "outputs": [],
      "stateMutability": "nonpayable",
      "type": "function"
    },
    {
      "inputs": [
        {
          "internalType": "address",
          "name": "newOwner",
          "type": "address"
        }
      ],
      "name": "transferOwnership",
      "outputs": [],
      "stateMutability": "nonpayable",
      "type": "function"
    },
    {
      "inputs": [
        {
          "internalType": "uint256",
          "name": "tokenId",
          "type": "uint256"
        },
        {
          "internalType": "uint256",
          "name": "price",
          "type": "uint256"
        }
      ],
      "name": "mintToken",
      "outputs": [],
      "stateMutability": "nonpayable",
      "type": "function"
    },
    {
      "inputs": [
        {
          "internalType": "uint256",
          "name": "tokenId",
          "type": "uint256"
        }
      ],
      "name": "buyAsset",
      "outputs": [],
      "stateMutability": "payable",
      "type": "function",
      "payable": true
    },
    {
      "inputs": [
        {
          "internalType": "uint256",
          "name": "tokenId",
          "type": "uint256"
        }
      ],
      "name": "monthlyPayment",
      "outputs": [],
      "stateMutability": "payable",
      "type": "function",
      "payable": true
    },
    {
      "inputs": [
        {
          "internalType": "uint256",
          "name": "tokenId",
          "type": "uint256"
        },
        {
          "internalType": "uint16",
          "name": "year",
          "type": "uint16"
        },
        {
          "internalType": "uint8",
          "name": "month",
          "type": "uint8"
        }
      ],
      "name": "payCharge",
      "outputs": [],
      "stateMutability": "payable",
      "type": "function",
      "payable": true
    },
    {
      "inputs": [
        {
          "internalType": "uint256",
          "name": "tokenId",
          "type": "uint256"
        },
        {
          "internalType": "uint256",
          "name": "amount",
          "type": "uint256"
        },
        {
          "internalType": "uint16",
          "name": "year",
          "type": "uint16"
        },
        {
          "internalType": "uint8",
          "name": "month",
          "type": "uint8"
        }
      ],
      "name": "addCharge",
      "outputs": [],
      "stateMutability": "nonpayable",
      "type": "function"
    },
    {
      "inputs": [
        {
          "internalType": "uint256",
          "name": "tokenId",
          "type": "uint256"
        }
      ],
      "name": "seizeAsset",
      "outputs": [],
      "stateMutability": "nonpayable",
      "type": "function"
    },
    {
      "inputs": [
        {
          "internalType": "uint256",
          "name": "tokenId",
          "type": "uint256"
        },
        {
          "internalType": "uint16",
          "name": "year",
          "type": "uint16"
        },
        {
          "internalType": "uint8",
          "name": "month",
          "type": "uint8"
        }
      ],
      "name": "getPayment",
      "outputs": [
        {
          "internalType": "uint256",
          "name": "",
          "type": "uint256"
        }
      ],
      "stateMutability": "view",
      "type": "function",
      "constant": true
    }
  ],
  "bytecode": "0x60806040523480156200001157600080fd5b5060405162005bca38038062005bca8339818101604052810190620000379190620004e4565b6040518060400160405280600e81526020017f436f6c6c656374696f6e4e616d650000000000000000000000000000000000008152506040518060400160405280600381526020017f434e4d00000000000000000000000000000000000000000000000000000000008152508160009080519060200190620000bb9291906200025c565b508060019080519060200190620000d49291906200025c565b505050620000f7620000eb6200018e60201b60201c565b6200019660201b60201c565b60405180608001604052808581526020018481526020018381526020018281525060076000820151816000019080519060200190620001389291906200025c565b506020820151816001019080519060200190620001579291906200025c565b506040820151816002019080519060200190620001769291906200025c565b50606082015181600301559050505050505062000617565b600033905090565b6000600660009054906101000a900473ffffffffffffffffffffffffffffffffffffffff16905081600660006101000a81548173ffffffffffffffffffffffffffffffffffffffff021916908373ffffffffffffffffffffffffffffffffffffffff1602179055508173ffffffffffffffffffffffffffffffffffffffff168173ffffffffffffffffffffffffffffffffffffffff167f8be0079c531659141344cd1fd0a4f28419497f9722a3daafe3b4186f6b6457e060405160405180910390a35050565b8280546200026a90620005e2565b90600052602060002090601f0160209004810192826200028e5760008555620002da565b82601f10620002a957805160ff1916838001178555620002da565b82800160010185558215620002da579182015b82811115620002d9578251825591602001919060010190620002bc565b5b509050620002e99190620002ed565b5090565b5b8082111562000308576000816000905550600101620002ee565b5090565b6000604051905090565b600080fd5b600080fd5b600080fd5b600080fd5b6000601f19601f8301169050919050565b7f4e487b7100000000000000000000000000000000000000000000000000000000600052604160045260246000fd5b62000375826200032a565b810181811067ffffffffffffffff821117156200039757620003966200033b565b5b80604052505050565b6000620003ac6200030c565b9050620003ba82826200036a565b919050565b600067ffffffffffffffff821115620003dd57620003dc6200033b565b5b620003e8826200032a565b9050602081019050919050565b60005b8381101562000415578082015181840152602081019050620003f8565b8381111562000425576000848401525b50505050565b6000620004426200043c84620003bf565b620003a0565b90508281526020810184848401111562000461576200046062000325565b5b6200046e848285620003f5565b509392505050565b600082601f8301126200048e576200048d62000320565b5b8151620004a08482602086016200042b565b91505092915050565b6000819050919050565b620004be81620004a9565b8114620004ca57600080fd5b50565b600081519050620004de81620004b3565b92915050565b6000806000806080858703121562000501576200050062000316565b5b600085015167ffffffffffffffff8111156200052257620005216200031b565b5b620005308782880162000476565b945050602085015167ffffffffffffffff8111156200055457620005536200031b565b5b620005628782880162000476565b935050604085015167ffffffffffffffff8111156200058657620005856200031b565b5b620005948782880162000476565b9250506060620005a787828801620004cd565b91505092959194509250565b7f4e487b7100000000000000000000000000000000000000000000000000000000600052602260045260246000fd5b60006002820490506001821680620005fb57607f821691505b602082108103620006115762000610620005b3565b5b50919050565b6155a380620006276000396000f3fe6080604052600436106102255760003560e01c80638aa001fc11610123578063a324ad24116100ab578063b97923b21161006f578063b97923b2146108ba578063c87b56dd146108d6578063e985e9c514610913578063f2fde38b14610950578063fa93f8831461097957610225565b8063a324ad241461079d578063a6f0e577146107da578063b199993714610817578063b238ad0e14610854578063b88d4fde1461089157610225565b806392d66313116100f257806392d66313146106b357806394043d34146106f057806395d89b411461070c578063980419b714610737578063a22cb4651461077457610225565b80638aa001fc146105d15780638c8d98a01461060e5780638da5cb5b1461064b5780639054bdec1461067657610225565b80633e239e1a116101b15780636352211e116101755780636352211e146104c657806365c728401461050357806370a0823114610540578063715018a61461057d5780637f7918331461059457610225565b80633e239e1a146103bd57806342842e0e146103fa5780634ac1ad781461042357806355d1b5821461046057806362ba96871461048957610225565b8063110d35b8116101f8578063110d35b8146102f85780631c5ec80f1461031457806320cbf5f91461033d57806323b872dd14610366578063304913711461038f57610225565b806301ffc9a71461022a57806306fdde0314610267578063081812fc14610292578063095ea7b3146102cf575b600080fd5b34801561023657600080fd5b50610251600480360381019061024c919061376d565b6109b6565b60405161025e91906137b5565b60405180910390f35b34801561027357600080fd5b5061027c610a98565b6040516102899190613869565b60405180910390f35b34801561029e57600080fd5b506102b960048036038101906102b491906138c1565b610b2a565b6040516102c6919061392f565b60405180910390f35b3480156102db57600080fd5b506102f660048036038101906102f19190613976565b610baf565b005b610312600480360381019061030d91906138c1565b610cc6565b005b34801561032057600080fd5b5061033b60048036038101906103369190613a29565b610ea5565b005b34801561034957600080fd5b50610364600480360381019061035f9190613a90565b61113c565b005b34801561037257600080fd5b5061038d60048036038101906103889190613ad0565b6111f1565b005b34801561039b57600080fd5b506103a4611251565b6040516103b49493929190613b32565b60405180910390f35b3480156103c957600080fd5b506103e460048036038101906103df91906138c1565b611407565b6040516103f19190613b9b565b60405180910390f35b34801561040657600080fd5b50610421600480360381019061041c9190613ad0565b611434565b005b34801561042f57600080fd5b5061044a600480360381019061044591906138c1565b611454565b6040516104579190613b9b565b60405180910390f35b34801561046c57600080fd5b50610487600480360381019061048291906138c1565b611484565b005b34801561049557600080fd5b506104b060048036038101906104ab9190613bb6565b61158a565b6040516104bd9190613c31565b60405180910390f35b3480156104d257600080fd5b506104ed60048036038101906104e891906138c1565b6115a6565b6040516104fa919061392f565b60405180910390f35b34801561050f57600080fd5b5061052a600480360381019061052591906138c1565b611657565b6040516105379190613b9b565b60405180910390f35b34801561054c57600080fd5b5061056760048036038101906105629190613c4c565b61166d565b6040516105749190613c31565b60405180910390f35b34801561058957600080fd5b50610592611724565b005b3480156105a057600080fd5b506105bb60048036038101906105b69190613c79565b6117ac565b6040516105c89190613c31565b60405180910390f35b3480156105dd57600080fd5b506105f860048036038101906105f391906138c1565b6117c7565b6040516106059190613b9b565b60405180910390f35b34801561061a57600080fd5b5061063560048036038101906106309190613ce0565b6117dd565b6040516106429190613c31565b60405180910390f35b34801561065757600080fd5b506106606117f8565b60405161066d919061392f565b60405180910390f35b34801561068257600080fd5b5061069d60048036038101906106989190613d33565b611822565b6040516106aa9190613c31565b60405180910390f35b3480156106bf57600080fd5b506106da60048036038101906106d591906138c1565b611b8d565b6040516106e79190613dcf565b60405180910390f35b61070a600480360381019061070591906138c1565b611ca4565b005b34801561071857600080fd5b50610721611f9e565b60405161072e9190613869565b60405180910390f35b34801561074357600080fd5b5061075e60048036038101906107599190613dea565b612030565b60405161076b9190613c31565b60405180910390f35b34801561078057600080fd5b5061079b60048036038101906107969190613e69565b61208d565b005b3480156107a957600080fd5b506107c460048036038101906107bf91906138c1565b6120a3565b6040516107d19190613b9b565b60405180910390f35b3480156107e657600080fd5b5061080160048036038101906107fc9190613ea9565b6120b9565b60405161080e91906137b5565b60405180910390f35b34801561082357600080fd5b5061083e600480360381019061083991906138c1565b612128565b60405161084b9190613c31565b60405180910390f35b34801561086057600080fd5b5061087b60048036038101906108769190613ed6565b61217c565b6040516108889190613b9b565b60405180910390f35b34801561089d57600080fd5b506108b860048036038101906108b3919061404b565b612248565b005b6108d460048036038101906108cf9190613dea565b6122aa565b005b3480156108e257600080fd5b506108fd60048036038101906108f891906138c1565b61256f565b60405161090a9190613869565b60405180910390f35b34801561091f57600080fd5b5061093a600480360381019061093591906140ce565b612616565b60405161094791906137b5565b60405180910390f35b34801561095c57600080fd5b5061097760048036038101906109729190613c4c565b6126aa565b005b34801561098557600080fd5b506109a0600480360381019061099b91906138c1565b6127a1565b6040516109ad9190613b9b565b60405180910390f35b60007f80ac58cd000000000000000000000000000000000000000000000000000000007bffffffffffffffffffffffffffffffffffffffffffffffffffffffff1916827bffffffffffffffffffffffffffffffffffffffffffffffffffffffff19161480610a8157507f5b5e139f000000000000000000000000000000000000000000000000000000007bffffffffffffffffffffffffffffffffffffffffffffffffffffffff1916827bffffffffffffffffffffffffffffffffffffffffffffffffffffffff1916145b80610a915750610a90826127c2565b5b9050919050565b606060008054610aa79061413d565b80601f0160208091040260200160405190810160405280929190818152602001828054610ad39061413d565b8015610b205780601f10610af557610100808354040283529160200191610b20565b820191906000526020600020905b815481529060010190602001808311610b0357829003601f168201915b5050505050905090565b6000610b358261282c565b610b74576040517f08c379a0000000000000000000000000000000000000000000000000000000008152600401610b6b906141e0565b60405180910390fd5b6004600083815260200190815260200160002060009054906101000a900473ffffffffffffffffffffffffffffffffffffffff169050919050565b6000610bba826115a6565b90508073ffffffffffffffffffffffffffffffffffffffff168373ffffffffffffffffffffffffffffffffffffffff1603610c2a576040517f08c379a0000000000000000000000000000000000000000000000000000000008152600401610c2190614272565b60405180910390fd5b8073ffffffffffffffffffffffffffffffffffffffff16610c49612898565b73ffffffffffffffffffffffffffffffffffffffff161480610c785750610c7781610c72612898565b612616565b5b610cb7576040517f08c379a0000000000000000000000000000000000000000000000000000000008152600401610cae90614304565b60405180910390fd5b610cc183836128a0565b505050565b6000600b60008381526020019081526020016000205414610d1c576040517f08c379a0000000000000000000000000000000000000000000000000000000008152600401610d1390614396565b60405180910390fd5b6000670de0b6b3a76400006064600a6011600086815260200190815260200160002054610d4991906143e5565b610d53919061446e565b610d5d91906143e5565b9050803414610da1576040517f08c379a0000000000000000000000000000000000000000000000000000000008152600401610d9890614511565b60405180910390fd5b6000610dac836115a6565b905080600c600085815260200190815260200160002060006101000a81548173ffffffffffffffffffffffffffffffffffffffff021916908373ffffffffffffffffffffffffffffffffffffffff16021790555042601060008581526020019081526020016000208190555081601260008581526020019081526020016000206000828254610e3b9190614531565b92505081905550610e4c8134612959565b610e67813385604051806020016040528060008152506129a4565b7f5020df8731194fc4e1b438f02ba6e904dbd6989cc61d3dd5ff842d5775785d183384604051610e98929190614587565b60405180910390a1505050565b610ead612898565b73ffffffffffffffffffffffffffffffffffffffff16610ecb6117f8565b73ffffffffffffffffffffffffffffffffffffffff1614610f21576040517f08c379a0000000000000000000000000000000000000000000000000000000008152600401610f18906145fc565b60405180910390fd5b60008282604051602001610f36929190614688565b6040516020818303038152906040528051906020012090506000600e600087815260200190815260200160002060008381526020019081526020016000205414610fb5576040517f08c379a0000000000000000000000000000000000000000000000000000000008152600401610fac90614726565b60405180910390fd5b610fbe426120a3565b60ff168260ff16108015610fe25750610fd642611b8d565b61ffff168361ffff1611155b611021576040517f08c379a0000000000000000000000000000000000000000000000000000000008152600401611018906147de565b60405180910390fd5b600061103f6010600088815260200190815260200160002054611b8d565b9050600061105f60106000898152602001908152602001600020546120a3565b90508461ffff168261ffff16118061108f57508461ffff168261ffff1614801561108e57508360ff168160ff16105b5b6110ce576040517f08c379a00000000000000000000000000000000000000000000000000000000081526004016110c590614896565b60405180910390fd5b85600b600089815260200190815260200160002060008282546110f19190614531565b9250508190555085600d60008981526020019081526020016000206000858152602001908152602001600020600082825461112c9190614531565b9250508190555050505050505050565b611144612898565b73ffffffffffffffffffffffffffffffffffffffff166111626117f8565b73ffffffffffffffffffffffffffffffffffffffff16146111b8576040517f08c379a00000000000000000000000000000000000000000000000000000000081526004016111af906145fc565b60405180910390fd5b670de0b6b3a7640000816111cc91906143e5565b60116000848152602001908152602001600020819055506111ed3383612a00565b5050565b6112026111fc612898565b82612bd9565b611241576040517f08c379a000000000000000000000000000000000000000000000000000000000815260040161123890614928565b60405180910390fd5b61124c838383612cb7565b505050565b60078060000180546112629061413d565b80601f016020809104026020016040519081016040528092919081815260200182805461128e9061413d565b80156112db5780601f106112b0576101008083540402835291602001916112db565b820191906000526020600020905b8154815290600101906020018083116112be57829003601f168201915b5050505050908060010180546112f09061413d565b80601f016020809104026020016040519081016040528092919081815260200182805461131c9061413d565b80156113695780601f1061133e57610100808354040283529160200191611369565b820191906000526020600020905b81548152906001019060200180831161134c57829003601f168201915b50505050509080600201805461137e9061413d565b80601f01602080910402602001604051908101604052809291908181526020018280546113aa9061413d565b80156113f75780601f106113cc576101008083540402835291602001916113f7565b820191906000526020600020905b8154815290600101906020018083116113da57829003601f168201915b5050505050908060030154905084565b60006018603c8084611419919061446e565b611423919061446e565b61142d9190614948565b9050919050565b61144f83838360405180602001604052806000815250612248565b505050565b6000600760046201518084611469919061446e565b6114739190614531565b61147d9190614948565b9050919050565b61148c612898565b73ffffffffffffffffffffffffffffffffffffffff166114aa6117f8565b73ffffffffffffffffffffffffffffffffffffffff1614611500576040517f08c379a00000000000000000000000000000000000000000000000000000000081526004016114f7906145fc565b60405180910390fd5b6703782dace9d90000600b600083815260200190815260200160002054101561155e576040517f08c379a0000000000000000000000000000000000000000000000000000000008152600401611555906149eb565b60405180910390fd5b6000611569826115a6565b9050611586813384604051806020016040528060008152506129a4565b5050565b600061159b86868686866000611822565b905095945050505050565b6000806002600084815260200190815260200160002060009054906101000a900473ffffffffffffffffffffffffffffffffffffffff169050600073ffffffffffffffffffffffffffffffffffffffff168173ffffffffffffffffffffffffffffffffffffffff160361164e576040517f08c379a000000000000000000000000000000000000000000000000000000000815260040161164590614a7d565b60405180910390fd5b80915050919050565b600061166282612f1d565b604001519050919050565b60008073ffffffffffffffffffffffffffffffffffffffff168273ffffffffffffffffffffffffffffffffffffffff16036116dd576040517f08c379a00000000000000000000000000000000000000000000000000000000081526004016116d490614b0f565b60405180910390fd5b600360008373ffffffffffffffffffffffffffffffffffffffff1673ffffffffffffffffffffffffffffffffffffffff168152602001908152602001600020549050919050565b61172c612898565b73ffffffffffffffffffffffffffffffffffffffff1661174a6117f8565b73ffffffffffffffffffffffffffffffffffffffff16146117a0576040517f08c379a0000000000000000000000000000000000000000000000000000000008152600401611797906145fc565b60405180910390fd5b6117aa600061312e565b565b60006117bd85858585600080611822565b9050949350505050565b6000603c826117d69190614948565b9050919050565b60006117ef8484846000806000611822565b90509392505050565b6000600660009054906101000a900473ffffffffffffffffffffffffffffffffffffffff16905090565b6000806107b290505b8761ffff168161ffff16101561188657611844816120b9565b15611860576301e28500826118599190614531565b9150611873565b6301e13380826118709190614531565b91505b808061187e90614b2f565b91505061182b565b61188e61368b565b601f816000600c81106118a4576118a3614b59565b5b602002019060ff16908160ff16815250506118be896120b9565b156118ef57601d816001600c81106118d9576118d8614b59565b5b602002019060ff16908160ff1681525050611917565b601c816001600c811061190557611904614b59565b5b602002019060ff16908160ff16815250505b601f816002600c811061192d5761192c614b59565b5b602002019060ff16908160ff1681525050601e816003600c811061195457611953614b59565b5b602002019060ff16908160ff1681525050601f816004600c811061197b5761197a614b59565b5b602002019060ff16908160ff1681525050601e816005600c81106119a2576119a1614b59565b5b602002019060ff16908160ff1681525050601f816006600c81106119c9576119c8614b59565b5b602002019060ff16908160ff1681525050601f816007600c81106119f0576119ef614b59565b5b602002019060ff16908160ff1681525050601e816008600c8110611a1757611a16614b59565b5b602002019060ff16908160ff1681525050601f816009600c8110611a3e57611a3d614b59565b5b602002019060ff16908160ff1681525050601e81600a600c8110611a6557611a64614b59565b5b602002019060ff16908160ff1681525050601f81600b600c8110611a8c57611a8b614b59565b5b602002019060ff16908160ff1681525050600191505b8760ff168261ffff161015611b0a5780600183611abf9190614b88565b61ffff16600c8110611ad457611ad3614b59565b5b602002015160ff1662015180611aea91906143e5565b83611af59190614531565b92508180611b0290614b2f565b925050611aa2565b600187611b179190614bbc565b60ff1662015180611b2891906143e5565b83611b339190614531565b92508560ff16610e10611b4691906143e5565b83611b519190614531565b92508460ff16603c611b6391906143e5565b83611b6e9190614531565b92508360ff1683611b7f9190614531565b925050509695505050505050565b600080600090506000806301e1338085611ba7919061446e565b6107b261ffff16611bb89190614531565b9150611bc96107b261ffff16612128565b611bd68361ffff16612128565b611be09190614bf0565b9050806301e28500611bf291906143e5565b83611bfd9190614531565b9250806107b283611c0e9190614b88565b61ffff16611c1c9190614bf0565b6301e13380611c2b91906143e5565b83611c369190614531565b92505b84831115611c9957611c56600183611c519190614b88565b6120b9565b15611c72576301e2850083611c6b9190614bf0565b9250611c85565b6301e1338083611c829190614bf0565b92505b600182611c929190614b88565b9150611c39565b819350505050919050565b611cad816115a6565b73ffffffffffffffffffffffffffffffffffffffff163373ffffffffffffffffffffffffffffffffffffffff1614611d1a576040517f08c379a0000000000000000000000000000000000000000000000000000000008152600401611d1190614c96565b60405180910390fd5b6011600082815260200190815260200160002054601260008381526020019081526020016000205410611d4c57600080fd5b6000670de0b6b3a7640000606460056011600086815260200190815260200160002054611d7991906143e5565b611d83919061446e565b611d8d91906143e5565b9050803414611dd1576040517f08c379a0000000000000000000000000000000000000000000000000000000008152600401611dc890614d28565b60405180910390fd5b6000600c600084815260200190815260200160002060009054906101000a900473ffffffffffffffffffffffffffffffffffffffff1690506000611e1442611b8d565b611e1d426120a3565b604051602001611e2e929190614688565b6040516020818303038152906040528051906020012090506000600e600086815260200190815260200160002060008381526020019081526020016000205414611ead576040517f08c379a0000000000000000000000000000000000000000000000000000000008152600401611ea490614dba565b60405180910390fd5b42600f60008681526020019081526020016000208190555082600e600086815260200190815260200160002060008381526020019081526020016000208190555082601260008681526020019081526020016000206000828254611f119190614531565b925050819055508173ffffffffffffffffffffffffffffffffffffffff166108fc349081150290604051600060405180830381858888f19350505050158015611f5e573d6000803e3d6000fd5b507f965e4342438576e07394048cb00f50e484e311e5249843fc69dbad9bac3eb63f3385604051611f90929190614587565b60405180910390a150505050565b606060018054611fad9061413d565b80601f0160208091040260200160405190810160405280929190818152602001828054611fd99061413d565b80156120265780601f10611ffb57610100808354040283529160200191612026565b820191906000526020600020905b81548152906001019060200180831161200957829003601f168201915b5050505050905090565b6000808383604051602001612046929190614688565b604051602081830303815290604052805190602001209050600e60008681526020019081526020016000206000828152602001908152602001600020549150509392505050565b61209f612098612898565b83836131f4565b5050565b60006120ae82612f1d565b602001519050919050565b6000806004836120c99190614dda565b61ffff16146120db5760009050612123565b60006064836120ea9190614dda565b61ffff16146120fc5760019050612123565b60006101908361210c9190614dda565b61ffff161461211e5760009050612123565b600190505b919050565b60006001826121379190614bf0565b915061019082612147919061446e565b606483612154919061446e565b600484612161919061446e565b61216b9190614bf0565b6121759190614531565b9050919050565b600060018360ff161480612193575060038360ff16145b806121a1575060058360ff16145b806121af575060078360ff16145b806121bd575060088360ff16145b806121cb5750600a8360ff16145b806121d95750600c8360ff16145b156121e757601f9050612242565b60048360ff1614806121fc575060068360ff16145b8061220a575060098360ff16145b806122185750600b8360ff16145b1561222657601e9050612242565b61222f826120b9565b1561223d57601d9050612242565b601c90505b92915050565b612259612253612898565b83612bd9565b612298576040517f08c379a000000000000000000000000000000000000000000000000000000000815260040161228f90614928565b60405180910390fd5b6122a4848484846129a4565b50505050565b600082826040516020016122bf929190614688565b6040516020818303038152906040528051906020012090506000670de0b6b3a764000060646005601160008981526020019081526020016000205461230491906143e5565b61230e919061446e565b61231891906143e5565b9050612323856115a6565b73ffffffffffffffffffffffffffffffffffffffff163373ffffffffffffffffffffffffffffffffffffffff1614612390576040517f08c379a000000000000000000000000000000000000000000000000000000000815260040161238790614c96565b60405180910390fd5b60116000868152602001908152602001600020546012600087815260200190815260200160002054106123c257600080fd5b6000600d600087815260200190815260200160002060008481526020019081526020016000205411612429576040517f08c379a000000000000000000000000000000000000000000000000000000000815260040161242090614e57565b60405180910390fd5b80341461246b576040517f08c379a000000000000000000000000000000000000000000000000000000000815260040161246290614ee9565b60405180910390fd5b6000600c600087815260200190815260200160002060009054906101000a900473ffffffffffffffffffffffffffffffffffffffff1690506000600d600088815260200190815260200160002060008581526020019081526020016000208190555081600e600088815260200190815260200160002060008581526020019081526020016000208190555081600b600088815260200190815260200160002060008282546125199190614bf0565b925050819055508073ffffffffffffffffffffffffffffffffffffffff166108fc349081150290604051600060405180830381858888f19350505050158015612566573d6000803e3d6000fd5b50505050505050565b606061257a8261282c565b6125b9576040517f08c379a00000000000000000000000000000000000000000000000000000000081526004016125b090614f7b565b60405180910390fd5b60006125c3613360565b905060008151116125e3576040518060200160405280600081525061260e565b806125ed84613377565b6040516020016125fe929190614fd7565b6040516020818303038152906040525b915050919050565b6000600560008473ffffffffffffffffffffffffffffffffffffffff1673ffffffffffffffffffffffffffffffffffffffff16815260200190815260200160002060008373ffffffffffffffffffffffffffffffffffffffff1673ffffffffffffffffffffffffffffffffffffffff16815260200190815260200160002060009054906101000a900460ff16905092915050565b6126b2612898565b73ffffffffffffffffffffffffffffffffffffffff166126d06117f8565b73ffffffffffffffffffffffffffffffffffffffff1614612726576040517f08c379a000000000000000000000000000000000000000000000000000000000815260040161271d906145fc565b60405180910390fd5b600073ffffffffffffffffffffffffffffffffffffffff168173ffffffffffffffffffffffffffffffffffffffff1603612795576040517f08c379a000000000000000000000000000000000000000000000000000000000815260040161278c9061506d565b60405180910390fd5b61279e8161312e565b50565b6000603c80836127b1919061446e565b6127bb9190614948565b9050919050565b60007f01ffc9a7000000000000000000000000000000000000000000000000000000007bffffffffffffffffffffffffffffffffffffffffffffffffffffffff1916827bffffffffffffffffffffffffffffffffffffffffffffffffffffffff1916149050919050565b60008073ffffffffffffffffffffffffffffffffffffffff166002600084815260200190815260200160002060009054906101000a900473ffffffffffffffffffffffffffffffffffffffff1673ffffffffffffffffffffffffffffffffffffffff1614159050919050565b600033905090565b816004600083815260200190815260200160002060006101000a81548173ffffffffffffffffffffffffffffffffffffffff021916908373ffffffffffffffffffffffffffffffffffffffff160217905550808273ffffffffffffffffffffffffffffffffffffffff16612913836115a6565b73ffffffffffffffffffffffffffffffffffffffff167f8c5be1e5ebec7d5bd14f71427d1e84f3dd0314c0f7b2291e5b200ac8c7c3b92560405160405180910390a45050565b8173ffffffffffffffffffffffffffffffffffffffff166108fc829081150290604051600060405180830381858888f1935050505015801561299f573d6000803e3d6000fd5b505050565b6129af848484612cb7565b6129bb848484846134d7565b6129fa576040517f08c379a00000000000000000000000000000000000000000000000000000000081526004016129f1906150ff565b60405180910390fd5b50505050565b600073ffffffffffffffffffffffffffffffffffffffff168273ffffffffffffffffffffffffffffffffffffffff1603612a6f576040517f08c379a0000000000000000000000000000000000000000000000000000000008152600401612a669061516b565b60405180910390fd5b612a788161282c565b15612ab8576040517f08c379a0000000000000000000000000000000000000000000000000000000008152600401612aaf906151d7565b60405180910390fd5b612ac46000838361365e565b6001600360008473ffffffffffffffffffffffffffffffffffffffff1673ffffffffffffffffffffffffffffffffffffffff1681526020019081526020016000206000828254612b149190614531565b92505081905550816002600083815260200190815260200160002060006101000a81548173ffffffffffffffffffffffffffffffffffffffff021916908373ffffffffffffffffffffffffffffffffffffffff160217905550808273ffffffffffffffffffffffffffffffffffffffff16600073ffffffffffffffffffffffffffffffffffffffff167fddf252ad1be2c89b69c2b068fc378daa952ba7f163c4a11628f55a4df523b3ef60405160405180910390a4612bd560008383613663565b5050565b6000612be48261282c565b612c23576040517f08c379a0000000000000000000000000000000000000000000000000000000008152600401612c1a90615269565b60405180910390fd5b6000612c2e836115a6565b90508073ffffffffffffffffffffffffffffffffffffffff168473ffffffffffffffffffffffffffffffffffffffff161480612c705750612c6f8185612616565b5b80612cae57508373ffffffffffffffffffffffffffffffffffffffff16612c9684610b2a565b73ffffffffffffffffffffffffffffffffffffffff16145b91505092915050565b8273ffffffffffffffffffffffffffffffffffffffff16612cd7826115a6565b73ffffffffffffffffffffffffffffffffffffffff1614612d2d576040517f08c379a0000000000000000000000000000000000000000000000000000000008152600401612d24906152fb565b60405180910390fd5b600073ffffffffffffffffffffffffffffffffffffffff168273ffffffffffffffffffffffffffffffffffffffff1603612d9c576040517f08c379a0000000000000000000000000000000000000000000000000000000008152600401612d939061538d565b60405180910390fd5b612da783838361365e565b612db26000826128a0565b6001600360008573ffffffffffffffffffffffffffffffffffffffff1673ffffffffffffffffffffffffffffffffffffffff1681526020019081526020016000206000828254612e029190614bf0565b925050819055506001600360008473ffffffffffffffffffffffffffffffffffffffff1673ffffffffffffffffffffffffffffffffffffffff1681526020019081526020016000206000828254612e599190614531565b92505081905550816002600083815260200190815260200160002060006101000a81548173ffffffffffffffffffffffffffffffffffffffff021916908373ffffffffffffffffffffffffffffffffffffffff160217905550808273ffffffffffffffffffffffffffffffffffffffff168473ffffffffffffffffffffffffffffffffffffffff167fddf252ad1be2c89b69c2b068fc378daa952ba7f163c4a11628f55a4df523b3ef60405160405180910390a4612f18838383613663565b505050565b612f256136ae565b60008080612f3285611b8d565b846000019061ffff16908161ffff1681525050612f546107b261ffff16612128565b612f65856000015161ffff16612128565b612f6f9190614bf0565b9150816301e28500612f8191906143e5565b83612f8c9190614531565b9250816107b28560000151612fa19190614b88565b61ffff16612faf9190614bf0565b6301e13380612fbe91906143e5565b83612fc99190614531565b92506000600191505b600c8260ff161161304957612feb82866000015161217c565b60ff1662015180612ffc91906143e5565b905085848261300b9190614531565b11156130285781856020019060ff16908160ff1681525050613049565b80846130349190614531565b93508180613041906153ad565b925050612fd2565b600191505b6130608560200151866000015161217c565b60ff168260ff16116130bd5785846201518061307c9190614531565b11156130995781856040019060ff16908160ff16815250506130bd565b62015180846130a89190614531565b935081806130b5906153ad565b92505061304e565b6130c686611407565b856060019060ff16908160ff16815250506130e0866127a1565b856080019060ff16908160ff16815250506130fa866117c7565b8560a0019060ff16908160ff168152505061311486611454565b8560c0019060ff16908160ff168152505050505050919050565b6000600660009054906101000a900473ffffffffffffffffffffffffffffffffffffffff16905081600660006101000a81548173ffffffffffffffffffffffffffffffffffffffff021916908373ffffffffffffffffffffffffffffffffffffffff1602179055508173ffffffffffffffffffffffffffffffffffffffff168173ffffffffffffffffffffffffffffffffffffffff167f8be0079c531659141344cd1fd0a4f28419497f9722a3daafe3b4186f6b6457e060405160405180910390a35050565b8173ffffffffffffffffffffffffffffffffffffffff168373ffffffffffffffffffffffffffffffffffffffff1603613262576040517f08c379a000000000000000000000000000000000000000000000000000000000815260040161325990615422565b60405180910390fd5b80600560008573ffffffffffffffffffffffffffffffffffffffff1673ffffffffffffffffffffffffffffffffffffffff16815260200190815260200160002060008473ffffffffffffffffffffffffffffffffffffffff1673ffffffffffffffffffffffffffffffffffffffff16815260200190815260200160002060006101000a81548160ff0219169083151502179055508173ffffffffffffffffffffffffffffffffffffffff168373ffffffffffffffffffffffffffffffffffffffff167f17307eab39ab6107e8899845ad3d59bd9653f200f220920489ca2b5937696c318360405161335391906137b5565b60405180910390a3505050565b606060405180602001604052806000815250905090565b6060600082036133be576040518060400160405280600181526020017f300000000000000000000000000000000000000000000000000000000000000081525090506134d2565b600082905060005b600082146133f05780806133d990615442565b915050600a826133e9919061446e565b91506133c6565b60008167ffffffffffffffff81111561340c5761340b613f20565b5b6040519080825280601f01601f19166020018201604052801561343e5781602001600182028036833780820191505090505b5090505b600085146134cb576001826134579190614bf0565b9150600a856134669190614948565b60306134729190614531565b60f81b81838151811061348857613487614b59565b5b60200101907effffffffffffffffffffffffffffffffffffffffffffffffffffffffffffff1916908160001a905350600a856134c4919061446e565b9450613442565b8093505050505b919050565b60006134f88473ffffffffffffffffffffffffffffffffffffffff16613668565b15613651578373ffffffffffffffffffffffffffffffffffffffff1663150b7a02613521612898565b8786866040518563ffffffff1660e01b815260040161354394939291906154df565b6020604051808303816000875af192505050801561357f57506040513d601f19601f8201168201806040525081019061357c9190615540565b60015b613601573d80600081146135af576040519150601f19603f3d011682016040523d82523d6000602084013e6135b4565b606091505b5060008151036135f9576040517f08c379a00000000000000000000000000000000000000000000000000000000081526004016135f0906150ff565b60405180910390fd5b805181602001fd5b63150b7a0260e01b7bffffffffffffffffffffffffffffffffffffffffffffffffffffffff1916817bffffffffffffffffffffffffffffffffffffffffffffffffffffffff191614915050613656565b600190505b949350505050565b505050565b505050565b6000808273ffffffffffffffffffffffffffffffffffffffff163b119050919050565b604051806101800160405280600c90602082028036833780820191505090505090565b6040518060e00160405280600061ffff168152602001600060ff168152602001600060ff168152602001600060ff168152602001600060ff168152602001600060ff168152602001600060ff1681525090565b6000604051905090565b600080fd5b600080fd5b60007fffffffff0000000000000000000000000000000000000000000000000000000082169050919050565b61374a81613715565b811461375557600080fd5b50565b60008135905061376781613741565b92915050565b6000602082840312156137835761378261370b565b5b600061379184828501613758565b91505092915050565b60008115159050919050565b6137af8161379a565b82525050565b60006020820190506137ca60008301846137a6565b92915050565b600081519050919050565b600082825260208201905092915050565b60005b8381101561380a5780820151818401526020810190506137ef565b83811115613819576000848401525b50505050565b6000601f19601f8301169050919050565b600061383b826137d0565b61384581856137db565b93506138558185602086016137ec565b61385e8161381f565b840191505092915050565b600060208201905081810360008301526138838184613830565b905092915050565b6000819050919050565b61389e8161388b565b81146138a957600080fd5b50565b6000813590506138bb81613895565b92915050565b6000602082840312156138d7576138d661370b565b5b60006138e5848285016138ac565b91505092915050565b600073ffffffffffffffffffffffffffffffffffffffff82169050919050565b6000613919826138ee565b9050919050565b6139298161390e565b82525050565b60006020820190506139446000830184613920565b92915050565b6139538161390e565b811461395e57600080fd5b50565b6000813590506139708161394a565b92915050565b6000806040838503121561398d5761398c61370b565b5b600061399b85828601613961565b92505060206139ac858286016138ac565b9150509250929050565b600061ffff82169050919050565b6139cd816139b6565b81146139d857600080fd5b50565b6000813590506139ea816139c4565b92915050565b600060ff82169050919050565b613a06816139f0565b8114613a1157600080fd5b50565b600081359050613a23816139fd565b92915050565b60008060008060808587031215613a4357613a4261370b565b5b6000613a51878288016138ac565b9450506020613a62878288016138ac565b9350506040613a73878288016139db565b9250506060613a8487828801613a14565b91505092959194509250565b60008060408385031215613aa757613aa661370b565b5b6000613ab5858286016138ac565b9250506020613ac6858286016138ac565b9150509250929050565b600080600060608486031215613ae957613ae861370b565b5b6000613af786828701613961565b9350506020613b0886828701613961565b9250506040613b19868287016138ac565b9150509250925092565b613b2c8161388b565b82525050565b60006080820190508181036000830152613b4c8187613830565b90508181036020830152613b608186613830565b90508181036040830152613b748185613830565b9050613b836060830184613b23565b95945050505050565b613b95816139f0565b82525050565b6000602082019050613bb06000830184613b8c565b92915050565b600080600080600060a08688031215613bd257613bd161370b565b5b6000613be0888289016139db565b9550506020613bf188828901613a14565b9450506040613c0288828901613a14565b9350506060613c1388828901613a14565b9250506080613c2488828901613a14565b9150509295509295909350565b6000602082019050613c466000830184613b23565b92915050565b600060208284031215613c6257613c6161370b565b5b6000613c7084828501613961565b91505092915050565b60008060008060808587031215613c9357613c9261370b565b5b6000613ca1878288016139db565b9450506020613cb287828801613a14565b9350506040613cc387828801613a14565b9250506060613cd487828801613a14565b91505092959194509250565b600080600060608486031215613cf957613cf861370b565b5b6000613d07868287016139db565b9350506020613d1886828701613a14565b9250506040613d2986828701613a14565b9150509250925092565b60008060008060008060c08789031215613d5057613d4f61370b565b5b6000613d5e89828a016139db565b9650506020613d6f89828a01613a14565b9550506040613d8089828a01613a14565b9450506060613d9189828a01613a14565b9350506080613da289828a01613a14565b92505060a0613db389828a01613a14565b9150509295509295509295565b613dc9816139b6565b82525050565b6000602082019050613de46000830184613dc0565b92915050565b600080600060608486031215613e0357613e0261370b565b5b6000613e11868287016138ac565b9350506020613e22868287016139db565b9250506040613e3386828701613a14565b9150509250925092565b613e468161379a565b8114613e5157600080fd5b50565b600081359050613e6381613e3d565b92915050565b60008060408385031215613e8057613e7f61370b565b5b6000613e8e85828601613961565b9250506020613e9f85828601613e54565b9150509250929050565b600060208284031215613ebf57613ebe61370b565b5b6000613ecd848285016139db565b91505092915050565b60008060408385031215613eed57613eec61370b565b5b6000613efb85828601613a14565b9250506020613f0c858286016139db565b9150509250929050565b600080fd5b600080fd5b7f4e487b7100000000000000000000000000000000000000000000000000000000600052604160045260246000fd5b613f588261381f565b810181811067ffffffffffffffff82111715613f7757613f76613f20565b5b80604052505050565b6000613f8a613701565b9050613f968282613f4f565b919050565b600067ffffffffffffffff821115613fb657613fb5613f20565b5b613fbf8261381f565b9050602081019050919050565b82818337600083830152505050565b6000613fee613fe984613f9b565b613f80565b90508281526020810184848401111561400a57614009613f1b565b5b614015848285613fcc565b509392505050565b600082601f83011261403257614031613f16565b5b8135614042848260208601613fdb565b91505092915050565b600080600080608085870312156140655761406461370b565b5b600061407387828801613961565b945050602061408487828801613961565b9350506040614095878288016138ac565b925050606085013567ffffffffffffffff8111156140b6576140b5613710565b5b6140c28782880161401d565b91505092959194509250565b600080604083850312156140e5576140e461370b565b5b60006140f385828601613961565b925050602061410485828601613961565b9150509250929050565b7f4e487b7100000000000000000000000000000000000000000000000000000000600052602260045260246000fd5b6000600282049050600182168061415557607f821691505b6020821081036141685761416761410e565b5b50919050565b7f4552433732313a20617070726f76656420717565727920666f72206e6f6e657860008201527f697374656e7420746f6b656e0000000000000000000000000000000000000000602082015250565b60006141ca602c836137db565b91506141d58261416e565b604082019050919050565b600060208201905081810360008301526141f9816141bd565b9050919050565b7f4552433732313a20617070726f76616c20746f2063757272656e74206f776e6560008201527f7200000000000000000000000000000000000000000000000000000000000000602082015250565b600061425c6021836137db565b915061426782614200565b604082019050919050565b6000602082019050818103600083015261428b8161424f565b9050919050565b7f4552433732313a20617070726f76652063616c6c6572206973206e6f74206f7760008201527f6e6572206e6f7220617070726f76656420666f7220616c6c0000000000000000602082015250565b60006142ee6038836137db565b91506142f982614292565b604082019050919050565b6000602082019050818103600083015261431d816142e1565b9050919050565b7f457374652061637469766f206e6f2065737461206c696272652064652063617260008201527f6761730000000000000000000000000000000000000000000000000000000000602082015250565b60006143806023836137db565b915061438b82614324565b604082019050919050565b600060208201905081810360008301526143af81614373565b9050919050565b7f4e487b7100000000000000000000000000000000000000000000000000000000600052601160045260246000fd5b60006143f08261388b565b91506143fb8361388b565b9250817fffffffffffffffffffffffffffffffffffffffffffffffffffffffffffffffff0483118215151615614434576144336143b6565b5b828202905092915050565b7f4e487b7100000000000000000000000000000000000000000000000000000000600052601260045260246000fd5b60006144798261388b565b91506144848361388b565b9250826144945761449361443f565b5b828204905092915050565b7f456c2070726563696f20646520656e7472616461206e6f20657320636f72726560008201527f63746f0000000000000000000000000000000000000000000000000000000000602082015250565b60006144fb6023836137db565b91506145068261449f565b604082019050919050565b6000602082019050818103600083015261452a816144ee565b9050919050565b600061453c8261388b565b91506145478361388b565b9250827fffffffffffffffffffffffffffffffffffffffffffffffffffffffffffffffff0382111561457c5761457b6143b6565b5b828201905092915050565b600060408201905061459c6000830185613920565b6145a96020830184613b23565b9392505050565b7f4f776e61626c653a2063616c6c6572206973206e6f7420746865206f776e6572600082015250565b60006145e66020836137db565b91506145f1826145b0565b602082019050919050565b60006020820190508181036000830152614615816145d9565b9050919050565b60008160f01b9050919050565b60006146348261461c565b9050919050565b61464c614647826139b6565b614629565b82525050565b60008160f81b9050919050565b600061466a82614652565b9050919050565b61468261467d826139f0565b61465f565b82525050565b6000614694828561463b565b6002820191506146a48284614671565b6001820191508190509392505050565b7f45737465207061676f207961206861207369646f2065666563747561646f207060008201527f72657669616d656e746500000000000000000000000000000000000000000000602082015250565b6000614710602a836137db565b915061471b826146b4565b604082019050919050565b6000602082019050818103600083015261473f81614703565b9050919050565b7f4e6f2073652070756564656e20696e74726f647563697220636172676173207060008201527f617261206665636861732066757475726173206f207061726120656c206d657360208201527f2061637475616c00000000000000000000000000000000000000000000000000604082015250565b60006147c86047836137db565b91506147d382614746565b606082019050919050565b600060208201905081810360008301526147f7816147bb565b9050919050565b7f4e6f2073652070756564656e20696e74726f647563697220636172676173207060008201527f6172612066656368617320616e746572696f7265732061206c6120636f6d707260208201527f612064656c2061637469766f0000000000000000000000000000000000000000604082015250565b6000614880604c836137db565b915061488b826147fe565b606082019050919050565b600060208201905081810360008301526148af81614873565b9050919050565b7f4552433732313a207472616e736665722063616c6c6572206973206e6f74206f60008201527f776e6572206e6f7220617070726f766564000000000000000000000000000000602082015250565b60006149126031836137db565b915061491d826148b6565b604082019050919050565b6000602082019050818103600083015261494181614905565b9050919050565b60006149538261388b565b915061495e8361388b565b92508261496e5761496d61443f565b5b828206905092915050565b7f457374652061637469766f206e6f207469656e65206d617320646520302e323560008201527f2065746865727320646520646575646100000000000000000000000000000000602082015250565b60006149d56030836137db565b91506149e082614979565b604082019050919050565b60006020820190508181036000830152614a04816149c8565b9050919050565b7f4552433732313a206f776e657220717565727920666f72206e6f6e657869737460008201527f656e7420746f6b656e0000000000000000000000000000000000000000000000602082015250565b6000614a676029836137db565b9150614a7282614a0b565b604082019050919050565b60006020820190508181036000830152614a9681614a5a565b9050919050565b7f4552433732313a2062616c616e636520717565727920666f7220746865207a6560008201527f726f206164647265737300000000000000000000000000000000000000000000602082015250565b6000614af9602a836137db565b9150614b0482614a9d565b604082019050919050565b60006020820190508181036000830152614b2881614aec565b9050919050565b6000614b3a826139b6565b915061ffff8203614b4e57614b4d6143b6565b5b600182019050919050565b7f4e487b7100000000000000000000000000000000000000000000000000000000600052603260045260246000fd5b6000614b93826139b6565b9150614b9e836139b6565b925082821015614bb157614bb06143b6565b5b828203905092915050565b6000614bc7826139f0565b9150614bd2836139f0565b925082821015614be557614be46143b6565b5b828203905092915050565b6000614bfb8261388b565b9150614c068361388b565b925082821015614c1957614c186143b6565b5b828203905092915050565b7f4e6f206572657320656c2070726f706965746172696f2064652065737465207460008201527f6f6b656e00000000000000000000000000000000000000000000000000000000602082015250565b6000614c806024836137db565b9150614c8b82614c24565b604082019050919050565b60006020820190508181036000830152614caf81614c73565b9050919050565b7f4c612063616e74696461642061626f6e616461206e6f20657320636f7272656360008201527f7461000000000000000000000000000000000000000000000000000000000000602082015250565b6000614d126022836137db565b9150614d1d82614cb6565b604082019050919050565b60006020820190508181036000830152614d4181614d05565b9050919050565b7f456c207061676f2064652065737465206d65732079612073652068612065666560008201527f63747561646f0000000000000000000000000000000000000000000000000000602082015250565b6000614da46026836137db565b9150614daf82614d48565b604082019050919050565b60006020820190508181036000830152614dd381614d97565b9050919050565b6000614de5826139b6565b9150614df0836139b6565b925082614e0057614dff61443f565b5b828206905092915050565b7f45737465206d6573206e6f207469656e65206361726761730000000000000000600082015250565b6000614e416018836137db565b9150614e4c82614e0b565b602082019050919050565b60006020820190508181036000830152614e7081614e34565b9050919050565b7f456c207061676f2064656265207365722064656c2035252064656c20746f746160008201527f6c2064656c2061637469766f0000000000000000000000000000000000000000602082015250565b6000614ed3602c836137db565b9150614ede82614e77565b604082019050919050565b60006020820190508181036000830152614f0281614ec6565b9050919050565b7f4552433732314d657461646174613a2055524920717565727920666f72206e6f60008201527f6e6578697374656e7420746f6b656e0000000000000000000000000000000000602082015250565b6000614f65602f836137db565b9150614f7082614f09565b604082019050919050565b60006020820190508181036000830152614f9481614f58565b9050919050565b600081905092915050565b6000614fb1826137d0565b614fbb8185614f9b565b9350614fcb8185602086016137ec565b80840191505092915050565b6000614fe38285614fa6565b9150614fef8284614fa6565b91508190509392505050565b7f4f776e61626c653a206e6577206f776e657220697320746865207a65726f206160008201527f6464726573730000000000000000000000000000000000000000000000000000602082015250565b60006150576026836137db565b915061506282614ffb565b604082019050919050565b600060208201905081810360008301526150868161504a565b9050919050565b7f4552433732313a207472616e7366657220746f206e6f6e20455243373231526560008201527f63656976657220696d706c656d656e7465720000000000000000000000000000602082015250565b60006150e96032836137db565b91506150f48261508d565b604082019050919050565b60006020820190508181036000830152615118816150dc565b9050919050565b7f4552433732313a206d696e7420746f20746865207a65726f2061646472657373600082015250565b60006151556020836137db565b91506151608261511f565b602082019050919050565b6000602082019050818103600083015261518481615148565b9050919050565b7f4552433732313a20746f6b656e20616c7265616479206d696e74656400000000600082015250565b60006151c1601c836137db565b91506151cc8261518b565b602082019050919050565b600060208201905081810360008301526151f0816151b4565b9050919050565b7f4552433732313a206f70657261746f7220717565727920666f72206e6f6e657860008201527f697374656e7420746f6b656e0000000000000000000000000000000000000000602082015250565b6000615253602c836137db565b915061525e826151f7565b604082019050919050565b6000602082019050818103600083015261528281615246565b9050919050565b7f4552433732313a207472616e736665722066726f6d20696e636f72726563742060008201527f6f776e6572000000000000000000000000000000000000000000000000000000602082015250565b60006152e56025836137db565b91506152f082615289565b604082019050919050565b60006020820190508181036000830152615314816152d8565b9050919050565b7f4552433732313a207472616e7366657220746f20746865207a65726f2061646460008201527f7265737300000000000000000000000000000000000000000000000000000000602082015250565b60006153776024836137db565b91506153828261531b565b604082019050919050565b600060208201905081810360008301526153a68161536a565b9050919050565b60006153b8826139f0565b915060ff82036153cb576153ca6143b6565b5b600182019050919050565b7f4552433732313a20617070726f766520746f2063616c6c657200000000000000600082015250565b600061540c6019836137db565b9150615417826153d6565b602082019050919050565b6000602082019050818103600083015261543b816153ff565b9050919050565b600061544d8261388b565b91507fffffffffffffffffffffffffffffffffffffffffffffffffffffffffffffffff820361547f5761547e6143b6565b5b600182019050919050565b600081519050919050565b600082825260208201905092915050565b60006154b18261548a565b6154bb8185615495565b93506154cb8185602086016137ec565b6154d48161381f565b840191505092915050565b60006080820190506154f46000830187613920565b6155016020830186613920565b61550e6040830185613b23565b818103606083015261552081846154a6565b905095945050505050565b60008151905061553a81613741565b92915050565b6000602082840312156155565761555561370b565b5b60006155648482850161552b565b9150509291505056fea2646970667358221220fd3994a08b4a0204b430ade5b8add36d1b56c364b9c08b5acb631f9740eb4a6564736f6c634300080d0033",
  "immutableReferences": {},
  "source": "//SPDX-License-Identifier: UNLICENSED\r\n\r\npragma solidity ^0.8.0;\r\n\r\n//Importar SC necesarios\r\nimport \"../../node_modules/@openzeppelin/contracts/token/ERC721/ERC721.sol\";\r\nimport \"../../node_modules/@openzeppelin/contracts/access/Ownable.sol\";\r\nimport \"../../node_modules/ethereum-datetime/contracts/DateTime.sol\";\r\n\r\n//Inicializacin del contrato\r\ncontract legalContract is ERC721, Ownable, DateTime{\r\n\r\n    publicNotary public publicnotary; //Variable que almacena los datos del notario\r\n\r\n    //Estructuras de almacenamiento de informacin\r\n    mapping(uint256 => uint256) assetFee; //Guarda el total de cargas para cada activo\r\n    mapping(uint256 => address) tokenSeller; // Guarda el vendedor de cada activo\r\n    mapping(uint256 => mapping(bytes32 => uint256)) tokenCharges; //Guarda la carga mensual de cada activo\r\n    mapping(uint256 => mapping(bytes32 => uint256)) tokenPayments; //Guarda los pagos mensuales de cada activo\r\n    mapping(uint256 => uint256) lastTokenPayment; //Guarda la fecha del ltimo pago realizado para cada activo\r\n    mapping(uint256 => uint256) purchaseDate; //Guarda la fecha de compra de cada activo\r\n    mapping(uint256 => uint256) tokenPrice; //Guarda el precio del activo\r\n    mapping(uint256 => uint256) totalAmountPaid; //Guarda la cantidad acumulada pagada por un token en un determinado momento\r\n\r\n    //Declaracin de eventos\r\n    event assetBought(address, uint256);\r\n    event monthlyPay(address, uint256);\r\n\r\n    struct publicNotary{ //Objeto del notario \r\n        string name; //Nombre\r\n        string firstSurname; //Apellidos\r\n        string id; //DNI\r\n        uint256 NotaryID; //Nmero identificador de dicho notario\r\n    }\r\n\r\n    constructor(string memory name, \r\n                string memory firstSurname, \r\n                string memory id, \r\n                uint256 NotaryID) \r\n                ERC721(\"CollectionName\", \"CNM\"){\r\n        //Guardar la informacin del notario cuando se crea el contrato\r\n        publicnotary = publicNotary(name, firstSurname, id, NotaryID);\r\n    }\r\n\r\n    //Funcin para mintear el token, solo ejecutable por el propietario del contrato, es decir, aquel que lo despliega en al blockchain\r\n    function mintToken(uint256 tokenId, uint256 price) public onlyOwner {\r\n        tokenPrice[tokenId] = price * 10**18; //Guardar el precio del token en ethers\r\n        _mint(msg.sender, tokenId); //El propietario del contrato mintea el token y por el momento este token es de su propiedad\r\n    }\r\n\r\n    //Funcin para comprar un activo, puede ser ejecutada por cualquier usuario\r\n    function buyAsset(uint256 tokenId) public payable {\r\n        require(assetFee[tokenId] == 0, \"Este activo no esta libre de cargas\"); //Si el activo tiene cargas no podr transferirse\r\n\r\n        uint256 entranceFee = (tokenPrice[tokenId] * 10/100) * 10**18; //Calcular el 10% del valor del activo para usarlo como entrada\r\n        require(msg.value == entranceFee, \"El precio de entrada no es correcto\"); //Precio simblico del activo\r\n        \r\n        address tokenOwner = ownerOf(tokenId); // Guardar el propietario del activo\r\n        \r\n        tokenSeller[tokenId] = tokenOwner; //Guardar el vendedor del activo\r\n        purchaseDate[tokenId] = block.timestamp; //Guardar la fecha en la que se vende el activo\r\n        totalAmountPaid[tokenId] += entranceFee; //Sumar el precio de la entrada al total pagado por el activo\r\n        payEntranceFee(tokenOwner, msg.value); //Ejecutar la funcin del pago de la entrada\r\n        _safeTransfer(tokenOwner, msg.sender, tokenId, \"\"); //Ejecutar la transferencia del activo\r\n        \r\n        emit assetBought(msg.sender, tokenId); //Informar a la red de que el usuario que ejecuta esta funcin ha adquirido un determinado activo\r\n    }\r\n\r\n    //Funcin para abonar la entrada del activo. Que sea privada nos asegura que la funcin se ejecutar solo si es llamada desde el mismo contrato\r\n    function payEntranceFee(address tokenOwner, uint256 price) private {\r\n        payable(tokenOwner).transfer(price); //Al propietario del token se le transfiere la cantidad \"price\"\r\n    }\r\n\r\n    //Funcin para proceder con el pago mensual del activo. Cualquiera puede ejecutarla\r\n    function monthlyPayment(uint256 tokenId) public payable{\r\n        require(msg.sender == ownerOf(tokenId), \"No eres el propietario de este token\"); //Comprobar que quien ejecuta la funcin es propietario del token que quiere pagar\r\n        require(totalAmountPaid[tokenId] < tokenPrice[tokenId]); //Comprobar que no se haya pagado an totalmente el activo\r\n\r\n        uint256 monthlyPrice = (tokenPrice[tokenId]*5/100) * 10**18;//Calcular el pago mensual del activo (5% del total)\r\n\r\n        require(msg.value == monthlyPrice, \"La cantidad abonada no es correcta\"); //Comprobar que el pago es de 0.05 ehters\r\n\r\n        address seller = tokenSeller[tokenId]; //Obtener el vendedor del contrato\r\n        bytes32 date; //Crear una variable fecha en formato hash\r\n      \r\n        date = keccak256(abi.encodePacked(getYear(block.timestamp), getMonth(block.timestamp))); //La fecha guarda el mes y el ao actuales en formato hash\r\n\r\n        require(tokenPayments[tokenId][date] == 0, \"El pago de este mes ya se ha efectuado\"); //Comprobar si el pago del mes actual se ha efectuado\r\n\r\n        lastTokenPayment[tokenId] = block.timestamp; //Guardar la fecha del ltimo pago\r\n        tokenPayments[tokenId][date] = monthlyPrice; //Guardar el pago mensual\r\n        totalAmountPaid[tokenId] += monthlyPrice; //Acumular el pago mensual\r\n        payable(seller).transfer(msg.value); //Transferir el pago mensual a la cuenta del vendedor\r\n\r\n        emit monthlyPay(msg.sender, tokenId); //Se ifnorma a la red de que quien ejecuta esta funcin ha pagado mensualmente por su token\r\n    }\r\n\r\n    //Funcin para pagar los retrasos. Cualquiera puede ejecutar esta funcin\r\n    function payCharge(uint256 tokenId, uint16 year, uint8 month) public payable {\r\n        bytes32 date = keccak256(abi.encodePacked(year, month)); //Hashear el ao y el mes\r\n        uint256 monthlyPrice = (tokenPrice[tokenId]*5/100) * 10**18;//Calcular el pago mensual del activo (5% del total)\r\n\r\n        require(msg.sender == ownerOf(tokenId),\"No eres el propietario de este token\"); //Comprobar que quien ejecuta la accin va a pagar por un token del cual es propietario\r\n        require(totalAmountPaid[tokenId] < tokenPrice[tokenId]); //Comprobar que no se haya pagado an totalmente el activo\r\n        require(tokenCharges[tokenId][date] > 0, \"Este mes no tiene cargas\"); //Comprobar que el mes tiene una carga\r\n        require(msg.value == monthlyPrice, \"El pago debe ser del 5% del total del activo\"); //Comprobar que el valor abonado es el correcto\r\n\r\n        address seller = tokenSeller[tokenId]; //Obtener el vendedor del activo\r\n\r\n        tokenCharges[tokenId][date] = 0; //Eliminar la carga del mes que se ha abonado\r\n        tokenPayments[tokenId][date] = monthlyPrice; //Aadir el pago a los meses pagados\r\n        assetFee[tokenId] -= monthlyPrice; //Restar el total abonado de la cantidad total de cargas\r\n        payable(seller).transfer(msg.value); //Enviar el dinero al vendedor\r\n    }\r\n\r\n    //Funcin para aadir un retraso en un pago. La funcin la puede ejecutar nicamente el propietario del contrato\r\n    function addCharge(uint256 tokenId, uint256 amount, uint16 year, uint8 month) public onlyOwner { \r\n\r\n        bytes32 date = keccak256(abi.encodePacked(year, month));//Hashear el ao y el mes\r\n        require(tokenPayments[tokenId][date] == 0, \"Este pago ya ha sido efectuado previamente\"); //Comprobar que el pago de dicho mes/ao no se ha efectuado\r\n       \r\n        //Evitar aadir un retraso en una fecha futura\r\n        require(month < getMonth(block.timestamp) && year <= getYear(block.timestamp), \"No se pueden introducir cargas para fechas futuras o para el mes actual\"); \r\n       \r\n        uint16 yearAdquired = getYear(purchaseDate[tokenId]); //Obtener el ao en el que se compr el activo\r\n        uint8 monthAdquired = getMonth(purchaseDate[tokenId]); //Obtener el mes en el que se compr el activo\r\n\r\n        //Evitar aadir cargas en meses en el que el activo an no se haba comprado\r\n        require(yearAdquired > year || yearAdquired == year && monthAdquired < month, \"No se pueden introducir cargas para fechas anteriores a la compra del activo\"); \r\n\r\n        assetFee[tokenId] += amount; //Sumar la carga actual al total de cargas\r\n        tokenCharges[tokenId][date] += amount; //Aadir la carga al mes en concreto que no se ha abonado\r\n    }\r\n\r\n    //Funcion para embargar tokens. Funcin nicamente ejecutable por el propietario del contrato\r\n    function seizeAsset(uint256 tokenId) public onlyOwner {\r\n        require(assetFee[tokenId] >= 0.25 ether, \"Este activo no tiene mas de 0.25 ethers de deuda\"); //Comprobar que se deban ms de 0.25 tokens\r\n        address tokenOwner = ownerOf(tokenId); //Obtener el propietario actual del activo\r\n\r\n        _safeTransfer(tokenOwner, msg.sender, tokenId, \"\"); //Transferir ese activo al propietario del contrato\r\n    }\r\n\r\n    // Funcin para obtener las cargas de un activo\r\n    function getPayment(uint256 tokenId, uint16 year, uint8 month) public view returns(uint256){\r\n        bytes32 date = keccak256(abi.encodePacked(year, month)); //Hashear el mes y el ao que queremos comprobar\r\n        return tokenPayments[tokenId][date]; //Devolver el total de carga para un token en un mes y ao en concreto\r\n    }\r\n}\r\n\r\n//PROS\r\n// 1 - Los datos estn ms ordenados y es ms eficiente a nivel de gas ya que no hay \r\n//tanta informacin guardada en la blockchain.\r\n\r\n// 2 - Ciertas operaciones se podran hacer off-chain, como por ejemplo el clculo del precio\r\n// de la entrada o el precio mensual a pagar. Esto hara que el contrato fuese ms eficiente.\r\n// Aunque en este contrato se hace on-chain debido a que este tipo de variables ms relevantes\r\n// tiene ms sentido que se guarden en la blockchain y no off-chain como por ejemplo los m^2 del\r\n// inmueble\r\n\r\n// 3- El contrato ERC721 ya se encarga automticamente de controlar quien es el propietario\r\n// del NFT y de modificar la informacin necesaria cuando se hace una transferencia.\r\n\r\n//CONS\r\n// 1 - Sera necesario un archivo JavaScript para obtener y la informacin de los metadatos \r\n// desde el archivo .JSON  ya que Solidity no tiene libreras para ello.\r\n\r\n// 2- Se necesitara tener un control de todos los archivos JSON, ya que tendramos uno\r\n// por cada NFT minteado, con la informacin del activo.\r\n\r\n// 3- Sera necesaria una herramienta externa (como tenderly) para llamar a la funcin de pagos mensuales o de\r\n// aadir una carga al activo, ya que Solidity no permite llamadas a funciones de forma automatizada. Tambin \r\n// se podran llamar a las funciones de forma manual, es decir, el propietario de un activo pagara explicitamente\r\n// su activo cuando fuese necesario (Que es como est programado actualmente). \r\n// Por otra parte la agencia responsable debera tener un control de las cargas para aadirlas cuando hayan\r\n// pasado X das desde el ltimo pago.\r\n\r\n\r\n//APRECIACIONES / COMENTARIOS\r\n// 1 - Tendramos un nico notario que se responsabilizara en su momento de la venta de \r\n// todos los activos relacionados con este contrato. Adems, es posible que se debiese guardar\r\n// ms informacin sobre el notario u otras entidades, esto es solo una representacin simblica\r\n\r\n// 2 - En el archivo de JavaScript tambin se calculara el precio mensual del activo y se hara\r\n// la conversin de la moneda fiat a la criptomoneda en el mismo momento de pagar para que el vendedor\r\n// siempre recibiese la misma cantidad en fiat.\r\n\r\n// 3 - En el archivo JavaScript tambin se podra aadir un mnimo a pagar sobre el total del precio\r\n// del activo, como por ejemplo, indicar que se debe pagar el 5% del total todos los meses. En mi opinin\r\n// esto sera mejor que quedase reflejado en el contrato, pero el precio del activo se encuentra off-chain\r\n// por tanto el contrato no conoce el precio del activo y este clculo no puede hacerse dentro del mismo SC.\r\n\r\n// 4 - El hecho de ser una coleccin que usa el estndar ERC-721 hara que, por defecto, los activos\r\n// pudieran ser tradeados en el mercado secundario como en OpenSea o Rarible. Aunque esto realmente podra\r\n// limitarse para que los activos fuesen solo puestos a la venta en un plataforma privada.\r\n\r\n// DUDAS \r\n// 1 - Se podra cancelar el contrato?\r\n// 2 - Que pasara si el comprador o el vendedor pierden o borran su cartera deliberadamente?\r\n",
  "sourcePath": "D:\\Documentos\\Trabajos\\legalContract\\src\\contracts\\legalContract.sol",
  "compiler": {
    "name": "solc",
    "version": "0.8.13+commit.abaa5c0e.Emscripten.clang"
  },
  "schemaVersion": "3.4.8",
  "updatedAt": "2022-11-17T06:16:02.359Z",
  "networkType": "ethereum",
  "devdoc": {
    "kind": "dev",
    "methods": {
      "approve(address,uint256)": {
        "details": "See {IERC721-approve}."
      },
      "balanceOf(address)": {
        "details": "See {IERC721-balanceOf}."
      },
      "getApproved(uint256)": {
        "details": "See {IERC721-getApproved}."
      },
      "isApprovedForAll(address,address)": {
        "details": "See {IERC721-isApprovedForAll}."
      },
      "name()": {
        "details": "See {IERC721Metadata-name}."
      },
      "owner()": {
        "details": "Returns the address of the current owner."
      },
      "ownerOf(uint256)": {
        "details": "See {IERC721-ownerOf}."
      },
      "renounceOwnership()": {
        "details": "Leaves the contract without owner. It will not be possible to call `onlyOwner` functions anymore. Can only be called by the current owner. NOTE: Renouncing ownership will leave the contract without an owner, thereby removing any functionality that is only available to the owner."
      },
      "safeTransferFrom(address,address,uint256)": {
        "details": "See {IERC721-safeTransferFrom}."
      },
      "safeTransferFrom(address,address,uint256,bytes)": {
        "details": "See {IERC721-safeTransferFrom}."
      },
      "setApprovalForAll(address,bool)": {
        "details": "See {IERC721-setApprovalForAll}."
      },
      "supportsInterface(bytes4)": {
        "details": "See {IERC165-supportsInterface}."
      },
      "symbol()": {
        "details": "See {IERC721Metadata-symbol}."
      },
      "tokenURI(uint256)": {
        "details": "See {IERC721Metadata-tokenURI}."
      },
      "transferFrom(address,address,uint256)": {
        "details": "See {IERC721-transferFrom}."
      },
      "transferOwnership(address)": {
        "details": "Transfers ownership of the contract to a new account (`newOwner`). Can only be called by the current owner."
      }
    },
    "version": 1
  },
  "userdoc": {
    "kind": "user",
    "methods": {},
    "version": 1
  }
}