{
  "contractName": "rentalContract",
  "abi": [
    {
      "inputs": [
        {
          "internalType": "string",
          "name": "notaryName",
          "type": "string"
        },
        {
          "internalType": "string",
          "name": "firstSurname",
          "type": "string"
        },
        {
          "internalType": "string",
          "name": "id",
          "type": "string"
        },
        {
          "internalType": "uint256",
          "name": "NotaryID",
          "type": "uint256"
        }
      ],
      "stateMutability": "nonpayable",
      "type": "constructor"
    },
    {
      "anonymous": false,
      "inputs": [
        {
          "indexed": true,
          "internalType": "address",
          "name": "owner",
          "type": "address"
        },
        {
          "indexed": true,
          "internalType": "address",
          "name": "approved",
          "type": "address"
        },
        {
          "indexed": true,
          "internalType": "uint256",
          "name": "tokenId",
          "type": "uint256"
        }
      ],
      "name": "Approval",
      "type": "event"
    },
    {
      "anonymous": false,
      "inputs": [
        {
          "indexed": true,
          "internalType": "address",
          "name": "owner",
          "type": "address"
        },
        {
          "indexed": true,
          "internalType": "address",
          "name": "operator",
          "type": "address"
        },
        {
          "indexed": false,
          "internalType": "bool",
          "name": "approved",
          "type": "bool"
        }
      ],
      "name": "ApprovalForAll",
      "type": "event"
    },
    {
      "anonymous": false,
      "inputs": [
        {
          "indexed": true,
          "internalType": "address",
          "name": "previousOwner",
          "type": "address"
        },
        {
          "indexed": true,
          "internalType": "address",
          "name": "newOwner",
          "type": "address"
        }
      ],
      "name": "OwnershipTransferred",
      "type": "event"
    },
    {
      "anonymous": false,
      "inputs": [
        {
          "indexed": true,
          "internalType": "address",
          "name": "from",
          "type": "address"
        },
        {
          "indexed": true,
          "internalType": "address",
          "name": "to",
          "type": "address"
        },
        {
          "indexed": true,
          "internalType": "uint256",
          "name": "tokenId",
          "type": "uint256"
        }
      ],
      "name": "Transfer",
      "type": "event"
    },
    {
      "anonymous": false,
      "inputs": [
        {
          "indexed": false,
          "internalType": "address",
          "name": "",
          "type": "address"
        },
        {
          "indexed": false,
          "internalType": "uint256",
          "name": "",
          "type": "uint256"
        }
      ],
      "name": "assetBought",
      "type": "event"
    },
    {
      "anonymous": false,
      "inputs": [
        {
          "indexed": false,
          "internalType": "address",
          "name": "",
          "type": "address"
        },
        {
          "indexed": false,
          "internalType": "uint256",
          "name": "",
          "type": "uint256"
        }
      ],
      "name": "monthlyPay",
      "type": "event"
    },
    {
      "inputs": [
        {
          "internalType": "address",
          "name": "to",
          "type": "address"
        },
        {
          "internalType": "uint256",
          "name": "tokenId",
          "type": "uint256"
        }
      ],
      "name": "approve",
      "outputs": [],
      "stateMutability": "nonpayable",
      "type": "function"
    },
    {
      "inputs": [
        {
          "internalType": "uint256",
          "name": "",
          "type": "uint256"
        }
      ],
      "name": "assetFee",
      "outputs": [
        {
          "internalType": "uint256",
          "name": "",
          "type": "uint256"
        }
      ],
      "stateMutability": "view",
      "type": "function",
      "constant": true
    },
    {
      "inputs": [
        {
          "internalType": "address",
          "name": "owner",
          "type": "address"
        }
      ],
      "name": "balanceOf",
      "outputs": [
        {
          "internalType": "uint256",
          "name": "",
          "type": "uint256"
        }
      ],
      "stateMutability": "view",
      "type": "function",
      "constant": true
    },
    {
      "inputs": [
        {
          "internalType": "uint256",
          "name": "tokenId",
          "type": "uint256"
        }
      ],
      "name": "getApproved",
      "outputs": [
        {
          "internalType": "address",
          "name": "",
          "type": "address"
        }
      ],
      "stateMutability": "view",
      "type": "function",
      "constant": true
    },
    {
      "inputs": [
        {
          "internalType": "uint256",
          "name": "timestamp",
          "type": "uint256"
        }
      ],
      "name": "getDay",
      "outputs": [
        {
          "internalType": "uint8",
          "name": "",
          "type": "uint8"
        }
      ],
      "stateMutability": "pure",
      "type": "function",
      "constant": true
    },
    {
      "inputs": [
        {
          "internalType": "uint8",
          "name": "month",
          "type": "uint8"
        },
        {
          "internalType": "uint16",
          "name": "year",
          "type": "uint16"
        }
      ],
      "name": "getDaysInMonth",
      "outputs": [
        {
          "internalType": "uint8",
          "name": "",
          "type": "uint8"
        }
      ],
      "stateMutability": "pure",
      "type": "function",
      "constant": true
    },
    {
      "inputs": [
        {
          "internalType": "uint256",
          "name": "timestamp",
          "type": "uint256"
        }
      ],
      "name": "getHour",
      "outputs": [
        {
          "internalType": "uint8",
          "name": "",
          "type": "uint8"
        }
      ],
      "stateMutability": "pure",
      "type": "function",
      "constant": true
    },
    {
      "inputs": [
        {
          "internalType": "uint256",
          "name": "timestamp",
          "type": "uint256"
        }
      ],
      "name": "getMinute",
      "outputs": [
        {
          "internalType": "uint8",
          "name": "",
          "type": "uint8"
        }
      ],
      "stateMutability": "pure",
      "type": "function",
      "constant": true
    },
    {
      "inputs": [
        {
          "internalType": "uint256",
          "name": "timestamp",
          "type": "uint256"
        }
      ],
      "name": "getMonth",
      "outputs": [
        {
          "internalType": "uint8",
          "name": "",
          "type": "uint8"
        }
      ],
      "stateMutability": "pure",
      "type": "function",
      "constant": true
    },
    {
      "inputs": [
        {
          "internalType": "uint256",
          "name": "timestamp",
          "type": "uint256"
        }
      ],
      "name": "getSecond",
      "outputs": [
        {
          "internalType": "uint8",
          "name": "",
          "type": "uint8"
        }
      ],
      "stateMutability": "pure",
      "type": "function",
      "constant": true
    },
    {
      "inputs": [
        {
          "internalType": "uint256",
          "name": "timestamp",
          "type": "uint256"
        }
      ],
      "name": "getWeekday",
      "outputs": [
        {
          "internalType": "uint8",
          "name": "",
          "type": "uint8"
        }
      ],
      "stateMutability": "pure",
      "type": "function",
      "constant": true
    },
    {
      "inputs": [
        {
          "internalType": "uint256",
          "name": "timestamp",
          "type": "uint256"
        }
      ],
      "name": "getYear",
      "outputs": [
        {
          "internalType": "uint16",
          "name": "",
          "type": "uint16"
        }
      ],
      "stateMutability": "pure",
      "type": "function",
      "constant": true
    },
    {
      "inputs": [
        {
          "internalType": "address",
          "name": "owner",
          "type": "address"
        },
        {
          "internalType": "address",
          "name": "operator",
          "type": "address"
        }
      ],
      "name": "isApprovedForAll",
      "outputs": [
        {
          "internalType": "bool",
          "name": "",
          "type": "bool"
        }
      ],
      "stateMutability": "view",
      "type": "function",
      "constant": true
    },
    {
      "inputs": [
        {
          "internalType": "uint16",
          "name": "year",
          "type": "uint16"
        }
      ],
      "name": "isLeapYear",
      "outputs": [
        {
          "internalType": "bool",
          "name": "",
          "type": "bool"
        }
      ],
      "stateMutability": "pure",
      "type": "function",
      "constant": true
    },
    {
      "inputs": [
        {
          "internalType": "uint256",
          "name": "",
          "type": "uint256"
        }
      ],
      "name": "lastTokenPayment",
      "outputs": [
        {
          "internalType": "uint256",
          "name": "",
          "type": "uint256"
        }
      ],
      "stateMutability": "view",
      "type": "function",
      "constant": true
    },
    {
      "inputs": [
        {
          "internalType": "uint256",
          "name": "year",
          "type": "uint256"
        }
      ],
      "name": "leapYearsBefore",
      "outputs": [
        {
          "internalType": "uint256",
          "name": "",
          "type": "uint256"
        }
      ],
      "stateMutability": "pure",
      "type": "function",
      "constant": true
    },
    {
      "inputs": [],
      "name": "lock",
      "outputs": [
        {
          "internalType": "bool",
          "name": "",
          "type": "bool"
        }
      ],
      "stateMutability": "view",
      "type": "function",
      "constant": true
    },
    {
      "inputs": [],
      "name": "name",
      "outputs": [
        {
          "internalType": "string",
          "name": "",
          "type": "string"
        }
      ],
      "stateMutability": "view",
      "type": "function",
      "constant": true
    },
    {
      "inputs": [],
      "name": "owner",
      "outputs": [
        {
          "internalType": "address",
          "name": "",
          "type": "address"
        }
      ],
      "stateMutability": "view",
      "type": "function",
      "constant": true
    },
    {
      "inputs": [
        {
          "internalType": "uint256",
          "name": "tokenId",
          "type": "uint256"
        }
      ],
      "name": "ownerOf",
      "outputs": [
        {
          "internalType": "address",
          "name": "",
          "type": "address"
        }
      ],
      "stateMutability": "view",
      "type": "function",
      "constant": true
    },
    {
      "inputs": [],
      "name": "publicnotary",
      "outputs": [
        {
          "internalType": "string",
          "name": "name",
          "type": "string"
        },
        {
          "internalType": "string",
          "name": "firstSurname",
          "type": "string"
        },
        {
          "internalType": "string",
          "name": "id",
          "type": "string"
        },
        {
          "internalType": "uint256",
          "name": "NotaryID",
          "type": "uint256"
        }
      ],
      "stateMutability": "view",
      "type": "function",
      "constant": true
    },
    {
      "inputs": [],
      "name": "renounceOwnership",
      "outputs": [],
      "stateMutability": "nonpayable",
      "type": "function"
    },
    {
      "inputs": [
        {
          "internalType": "uint256",
          "name": "",
          "type": "uint256"
        }
      ],
      "name": "rentDate",
      "outputs": [
        {
          "internalType": "uint256",
          "name": "",
          "type": "uint256"
        }
      ],
      "stateMutability": "view",
      "type": "function",
      "constant": true
    },
    {
      "inputs": [
        {
          "internalType": "address",
          "name": "from",
          "type": "address"
        },
        {
          "internalType": "address",
          "name": "to",
          "type": "address"
        },
        {
          "internalType": "uint256",
          "name": "tokenId",
          "type": "uint256"
        }
      ],
      "name": "safeTransferFrom",
      "outputs": [],
      "stateMutability": "nonpayable",
      "type": "function"
    },
    {
      "inputs": [
        {
          "internalType": "address",
          "name": "from",
          "type": "address"
        },
        {
          "internalType": "address",
          "name": "to",
          "type": "address"
        },
        {
          "internalType": "uint256",
          "name": "tokenId",
          "type": "uint256"
        },
        {
          "internalType": "bytes",
          "name": "_data",
          "type": "bytes"
        }
      ],
      "name": "safeTransferFrom",
      "outputs": [],
      "stateMutability": "nonpayable",
      "type": "function"
    },
    {
      "inputs": [
        {
          "internalType": "address",
          "name": "operator",
          "type": "address"
        },
        {
          "internalType": "bool",
          "name": "approved",
          "type": "bool"
        }
      ],
      "name": "setApprovalForAll",
      "outputs": [],
      "stateMutability": "nonpayable",
      "type": "function"
    },
    {
      "inputs": [
        {
          "internalType": "bytes4",
          "name": "interfaceId",
          "type": "bytes4"
        }
      ],
      "name": "supportsInterface",
      "outputs": [
        {
          "internalType": "bool",
          "name": "",
          "type": "bool"
        }
      ],
      "stateMutability": "view",
      "type": "function",
      "constant": true
    },
    {
      "inputs": [],
      "name": "symbol",
      "outputs": [
        {
          "internalType": "string",
          "name": "",
          "type": "string"
        }
      ],
      "stateMutability": "view",
      "type": "function",
      "constant": true
    },
    {
      "inputs": [
        {
          "internalType": "uint16",
          "name": "year",
          "type": "uint16"
        },
        {
          "internalType": "uint8",
          "name": "month",
          "type": "uint8"
        },
        {
          "internalType": "uint8",
          "name": "day",
          "type": "uint8"
        },
        {
          "internalType": "uint8",
          "name": "hour",
          "type": "uint8"
        },
        {
          "internalType": "uint8",
          "name": "minute",
          "type": "uint8"
        }
      ],
      "name": "toTimestamp",
      "outputs": [
        {
          "internalType": "uint256",
          "name": "timestamp",
          "type": "uint256"
        }
      ],
      "stateMutability": "pure",
      "type": "function",
      "constant": true
    },
    {
      "inputs": [
        {
          "internalType": "uint16",
          "name": "year",
          "type": "uint16"
        },
        {
          "internalType": "uint8",
          "name": "month",
          "type": "uint8"
        },
        {
          "internalType": "uint8",
          "name": "day",
          "type": "uint8"
        },
        {
          "internalType": "uint8",
          "name": "hour",
          "type": "uint8"
        }
      ],
      "name": "toTimestamp",
      "outputs": [
        {
          "internalType": "uint256",
          "name": "timestamp",
          "type": "uint256"
        }
      ],
      "stateMutability": "pure",
      "type": "function",
      "constant": true
    },
    {
      "inputs": [
        {
          "internalType": "uint16",
          "name": "year",
          "type": "uint16"
        },
        {
          "internalType": "uint8",
          "name": "month",
          "type": "uint8"
        },
        {
          "internalType": "uint8",
          "name": "day",
          "type": "uint8"
        }
      ],
      "name": "toTimestamp",
      "outputs": [
        {
          "internalType": "uint256",
          "name": "timestamp",
          "type": "uint256"
        }
      ],
      "stateMutability": "pure",
      "type": "function",
      "constant": true
    },
    {
      "inputs": [
        {
          "internalType": "uint16",
          "name": "year",
          "type": "uint16"
        },
        {
          "internalType": "uint8",
          "name": "month",
          "type": "uint8"
        },
        {
          "internalType": "uint8",
          "name": "day",
          "type": "uint8"
        },
        {
          "internalType": "uint8",
          "name": "hour",
          "type": "uint8"
        },
        {
          "internalType": "uint8",
          "name": "minute",
          "type": "uint8"
        },
        {
          "internalType": "uint8",
          "name": "second",
          "type": "uint8"
        }
      ],
      "name": "toTimestamp",
      "outputs": [
        {
          "internalType": "uint256",
          "name": "timestamp",
          "type": "uint256"
        }
      ],
      "stateMutability": "pure",
      "type": "function",
      "constant": true
    },
    {
      "inputs": [
        {
          "internalType": "uint256",
          "name": "",
          "type": "uint256"
        },
        {
          "internalType": "bytes32",
          "name": "",
          "type": "bytes32"
        }
      ],
      "name": "tokenCharges",
      "outputs": [
        {
          "internalType": "uint256",
          "name": "",
          "type": "uint256"
        }
      ],
      "stateMutability": "view",
      "type": "function",
      "constant": true
    },
    {
      "inputs": [
        {
          "internalType": "uint256",
          "name": "",
          "type": "uint256"
        }
      ],
      "name": "tokenMonthlyPrice",
      "outputs": [
        {
          "internalType": "uint256",
          "name": "",
          "type": "uint256"
        }
      ],
      "stateMutability": "view",
      "type": "function",
      "constant": true
    },
    {
      "inputs": [
        {
          "internalType": "uint256",
          "name": "",
          "type": "uint256"
        },
        {
          "internalType": "bytes32",
          "name": "",
          "type": "bytes32"
        }
      ],
      "name": "tokenPayments",
      "outputs": [
        {
          "internalType": "uint256",
          "name": "",
          "type": "uint256"
        }
      ],
      "stateMutability": "view",
      "type": "function",
      "constant": true
    },
    {
      "inputs": [
        {
          "internalType": "uint256",
          "name": "",
          "type": "uint256"
        }
      ],
      "name": "tokenTenant",
      "outputs": [
        {
          "internalType": "address",
          "name": "",
          "type": "address"
        }
      ],
      "stateMutability": "view",
      "type": "function",
      "constant": true
    },
    {
      "inputs": [
        {
          "internalType": "uint256",
          "name": "tokenId",
          "type": "uint256"
        }
      ],
      "name": "tokenURI",
      "outputs": [
        {
          "internalType": "string",
          "name": "",
          "type": "string"
        }
      ],
      "stateMutability": "view",
      "type": "function",
      "constant": true
    },
    {
      "inputs": [
        {
          "internalType": "uint256",
          "name": "",
          "type": "uint256"
        }
      ],
      "name": "totalMonthsUnpaid",
      "outputs": [
        {
          "internalType": "uint256",
          "name": "",
          "type": "uint256"
        }
      ],
      "stateMutability": "view",
      "type": "function",
      "constant": true
    },
    {
      "inputs": [
        {
          "internalType": "address",
          "name": "from",
          "type": "address"
        },
        {
          "internalType": "address",
          "name": "to",
          "type": "address"
        },
        {
          "internalType": "uint256",
          "name": "tokenId",
          "type": "uint256"
        }
      ],
      "name": "transferFrom",
      "outputs": [],
      "stateMutability": "nonpayable",
      "type": "function"
    },
    {
      "inputs": [
        {
          "internalType": "address",
          "name": "newOwner",
          "type": "address"
        }
      ],
      "name": "transferOwnership",
      "outputs": [],
      "stateMutability": "nonpayable",
      "type": "function"
    },
    {
      "inputs": [
        {
          "internalType": "uint256",
          "name": "tokenId",
          "type": "uint256"
        },
        {
          "internalType": "uint256",
          "name": "price",
          "type": "uint256"
        }
      ],
      "name": "mint",
      "outputs": [],
      "stateMutability": "nonpayable",
      "type": "function"
    },
    {
      "inputs": [
        {
          "internalType": "uint256",
          "name": "tokenId",
          "type": "uint256"
        }
      ],
      "name": "rentAsset",
      "outputs": [],
      "stateMutability": "payable",
      "type": "function",
      "payable": true
    },
    {
      "inputs": [
        {
          "internalType": "uint256",
          "name": "tokenId",
          "type": "uint256"
        }
      ],
      "name": "monthlyPayment",
      "outputs": [],
      "stateMutability": "payable",
      "type": "function",
      "payable": true
    },
    {
      "inputs": [
        {
          "internalType": "uint256",
          "name": "tokenId",
          "type": "uint256"
        },
        {
          "internalType": "uint16",
          "name": "year",
          "type": "uint16"
        },
        {
          "internalType": "uint8",
          "name": "month",
          "type": "uint8"
        }
      ],
      "name": "payCharge",
      "outputs": [],
      "stateMutability": "payable",
      "type": "function",
      "payable": true
    },
    {
      "inputs": [
        {
          "internalType": "uint256",
          "name": "tokenId",
          "type": "uint256"
        },
        {
          "internalType": "uint256",
          "name": "amount",
          "type": "uint256"
        },
        {
          "internalType": "uint16",
          "name": "year",
          "type": "uint16"
        },
        {
          "internalType": "uint8",
          "name": "month",
          "type": "uint8"
        }
      ],
      "name": "addCharge",
      "outputs": [],
      "stateMutability": "nonpayable",
      "type": "function"
    },
    {
      "inputs": [
        {
          "internalType": "uint256",
          "name": "tokenId",
          "type": "uint256"
        }
      ],
      "name": "seizeAsset",
      "outputs": [],
      "stateMutability": "nonpayable",
      "type": "function"
    },
    {
      "inputs": [
        {
          "internalType": "uint256",
          "name": "tokenId",
          "type": "uint256"
        },
        {
          "internalType": "uint16",
          "name": "year",
          "type": "uint16"
        },
        {
          "internalType": "uint8",
          "name": "month",
          "type": "uint8"
        }
      ],
      "name": "getPayment",
      "outputs": [
        {
          "internalType": "uint256",
          "name": "",
          "type": "uint256"
        }
      ],
      "stateMutability": "view",
      "type": "function",
      "constant": true
    },
    {
      "inputs": [
        {
          "internalType": "uint256",
          "name": "tokenId",
          "type": "uint256"
        }
      ],
      "name": "getFees",
      "outputs": [
        {
          "internalType": "uint256",
          "name": "",
          "type": "uint256"
        }
      ],
      "stateMutability": "view",
      "type": "function",
      "constant": true
    },
    {
      "inputs": [
        {
          "internalType": "uint256",
          "name": "tokenId",
          "type": "uint256"
        }
      ],
      "name": "getUnpaidMonths",
      "outputs": [
        {
          "internalType": "uint256",
          "name": "",
          "type": "uint256"
        }
      ],
      "stateMutability": "view",
      "type": "function",
      "constant": true
    },
    {
      "inputs": [
        {
          "internalType": "uint256",
          "name": "tokenId",
          "type": "uint256"
        }
      ],
      "name": "getAssetPrice",
      "outputs": [
        {
          "internalType": "uint256",
          "name": "",
          "type": "uint256"
        }
      ],
      "stateMutability": "view",
      "type": "function",
      "constant": true
    },
    {
      "inputs": [
        {
          "internalType": "uint256",
          "name": "tokenId",
          "type": "uint256"
        }
      ],
      "name": "accquiredDate",
      "outputs": [
        {
          "internalType": "uint16",
          "name": "",
          "type": "uint16"
        },
        {
          "internalType": "uint8",
          "name": "",
          "type": "uint8"
        }
      ],
      "stateMutability": "view",
      "type": "function",
      "constant": true
    }
  ],
  "bytecode": "0x60806040523480156200001157600080fd5b50604051620065b6380380620065b6833981810160405281019062000037919062000407565b6040518060400160405280600881526020017f4c616e6452656e740000000000000000000000000000000000000000000000008152506040518060400160405280600281526020017f4c520000000000000000000000000000000000000000000000000000000000008152508160009081620000b4919062000717565b508060019081620000c6919062000717565b505050620000e9620000dd6200016b60201b60201c565b6200017360201b60201c565b6040518060800160405280858152602001848152602001838152602001828152506007600082015181600001908162000123919062000717565b5060208201518160010190816200013b919062000717565b50604082015181600201908162000153919062000717565b506060820151816003015590505050505050620007fe565b600033905090565b6000600660009054906101000a900473ffffffffffffffffffffffffffffffffffffffff16905081600660006101000a81548173ffffffffffffffffffffffffffffffffffffffff021916908373ffffffffffffffffffffffffffffffffffffffff1602179055508173ffffffffffffffffffffffffffffffffffffffff168173ffffffffffffffffffffffffffffffffffffffff167f8be0079c531659141344cd1fd0a4f28419497f9722a3daafe3b4186f6b6457e060405160405180910390a35050565b6000604051905090565b600080fd5b600080fd5b600080fd5b600080fd5b6000601f19601f8301169050919050565b7f4e487b7100000000000000000000000000000000000000000000000000000000600052604160045260246000fd5b620002a28262000257565b810181811067ffffffffffffffff82111715620002c457620002c362000268565b5b80604052505050565b6000620002d962000239565b9050620002e7828262000297565b919050565b600067ffffffffffffffff8211156200030a576200030962000268565b5b620003158262000257565b9050602081019050919050565b60005b838110156200034257808201518184015260208101905062000325565b60008484015250505050565b6000620003656200035f84620002ec565b620002cd565b90508281526020810184848401111562000384576200038362000252565b5b6200039184828562000322565b509392505050565b600082601f830112620003b157620003b06200024d565b5b8151620003c38482602086016200034e565b91505092915050565b6000819050919050565b620003e181620003cc565b8114620003ed57600080fd5b50565b6000815190506200040181620003d6565b92915050565b6000806000806080858703121562000424576200042362000243565b5b600085015167ffffffffffffffff81111562000445576200044462000248565b5b620004538782880162000399565b945050602085015167ffffffffffffffff81111562000477576200047662000248565b5b620004858782880162000399565b935050604085015167ffffffffffffffff811115620004a957620004a862000248565b5b620004b78782880162000399565b9250506060620004ca87828801620003f0565b91505092959194509250565b600081519050919050565b7f4e487b7100000000000000000000000000000000000000000000000000000000600052602260045260246000fd5b600060028204905060018216806200052957607f821691505b6020821081036200053f576200053e620004e1565b5b50919050565b60008190508160005260206000209050919050565b60006020601f8301049050919050565b600082821b905092915050565b600060088302620005a97fffffffffffffffffffffffffffffffffffffffffffffffffffffffffffffffff826200056a565b620005b586836200056a565b95508019841693508086168417925050509392505050565b6000819050919050565b6000620005f8620005f2620005ec84620003cc565b620005cd565b620003cc565b9050919050565b6000819050919050565b6200061483620005d7565b6200062c6200062382620005ff565b84845462000577565b825550505050565b600090565b6200064362000634565b6200065081848462000609565b505050565b5b8181101562000678576200066c60008262000639565b60018101905062000656565b5050565b601f821115620006c757620006918162000545565b6200069c846200055a565b81016020851015620006ac578190505b620006c4620006bb856200055a565b83018262000655565b50505b505050565b600082821c905092915050565b6000620006ec60001984600802620006cc565b1980831691505092915050565b6000620007078383620006d9565b9150826002028217905092915050565b6200072282620004d6565b67ffffffffffffffff8111156200073e576200073d62000268565b5b6200074a825462000510565b620007578282856200067c565b600060209050601f8311600181146200078f57600084156200077a578287015190505b620007868582620006f9565b865550620007f6565b601f1984166200079f8662000545565b60005b82811015620007c957848901518255600182019150602085019450602081019050620007a2565b86831015620007e95784890151620007e5601f891682620006d9565b8355505b6001600288020188555050505b505050505050565b615da8806200080e6000396000f3fe6080604052600436106102e45760003560e01c80637f79183311610190578063a6f0e577116100dc578063c872dbcd11610095578063e985e9c51161006f578063e985e9c514610caf578063f2fde38b14610cec578063f83d08ba14610d15578063fa93f88314610d40576102e4565b8063c872dbcd14610c19578063c87b56dd14610c35578063d5a06d4c14610c72576102e4565b8063a6f0e57714610ae0578063b199993714610b1d578063b238ad0e14610b5a578063b88d4fde14610b97578063b97923b214610bc0578063c2db680614610bdc576102e4565b806394043d341161014957806398836a9c1161012357806398836a9c14610a005780639927c73a14610a3d578063a22cb46514610a7a578063a324ad2414610aa3576102e4565b806394043d341461097c57806395d89b4114610998578063980419b7146109c3576102e4565b80637f791833146108205780638aa001fc1461085d5780638c8d98a01461089a5780638da5cb5b146108d75780639054bdec1461090257806392d663131461093f576102e4565b806342842e0e1161024f57806362ba96871161020857806370a08231116101e257806370a0823114610751578063715018a61461078e578063742986e7146107a55780637c9149e2146107e2576102e4565b806362ba96871461069a5780636352211e146106d757806365c7284014610714576102e4565b806342842e0e146105545780634ac1ad781461057d5780634bfc2282146105ba57806355d1b582146105f75780635a37167a146106205780635e694cf51461065d576102e4565b80631b2ef1ca116102a15780631b2ef1ca146104315780631c5ec80f1461045a57806323b872dd1461048357806324930089146104ac57806330491371146104e95780633e239e1a14610517576102e4565b806301ffc9a7146102e957806306fdde0314610326578063081812fc14610351578063095ea7b31461038e5780630c5acd3c146103b75780631392a42f146103f4575b600080fd5b3480156102f557600080fd5b50610310600480360381019061030b9190613e93565b610d7d565b60405161031d9190613edb565b60405180910390f35b34801561033257600080fd5b5061033b610e5f565b6040516103489190613f86565b60405180910390f35b34801561035d57600080fd5b5061037860048036038101906103739190613fde565b610ef1565b604051610385919061404c565b60405180910390f35b34801561039a57600080fd5b506103b560048036038101906103b09190614093565b610f76565b005b3480156103c357600080fd5b506103de60048036038101906103d99190614109565b61108d565b6040516103eb9190614158565b60405180910390f35b34801561040057600080fd5b5061041b60048036038101906104169190613fde565b6110b2565b6040516104289190614158565b60405180910390f35b34801561043d57600080fd5b5061045860048036038101906104539190614173565b6110ca565b005b34801561046657600080fd5b50610481600480360381019061047c9190614226565b61116c565b005b34801561048f57600080fd5b506104aa60048036038101906104a5919061428d565b61149a565b005b3480156104b857600080fd5b506104d360048036038101906104ce9190613fde565b6114fa565b6040516104e0919061404c565b60405180910390f35b3480156104f557600080fd5b506104fe61152d565b60405161050e94939291906142e0565b60405180910390f35b34801561052357600080fd5b5061053e60048036038101906105399190613fde565b6116e3565b60405161054b9190614349565b60405180910390f35b34801561056057600080fd5b5061057b6004803603810190610576919061428d565b611710565b005b34801561058957600080fd5b506105a4600480360381019061059f9190613fde565b611730565b6040516105b19190614349565b60405180910390f35b3480156105c657600080fd5b506105e160048036038101906105dc9190613fde565b611760565b6040516105ee9190614158565b60405180910390f35b34801561060357600080fd5b5061061e60048036038101906106199190613fde565b61177d565b005b34801561062c57600080fd5b5061064760048036038101906106429190613fde565b6118a6565b6040516106549190614158565b60405180910390f35b34801561066957600080fd5b50610684600480360381019061067f9190613fde565b6118be565b6040516106919190614158565b60405180910390f35b3480156106a657600080fd5b506106c160048036038101906106bc9190614364565b6118db565b6040516106ce9190614158565b60405180910390f35b3480156106e357600080fd5b506106fe60048036038101906106f99190613fde565b6118f7565b60405161070b919061404c565b60405180910390f35b34801561072057600080fd5b5061073b60048036038101906107369190613fde565b6119a8565b6040516107489190614349565b60405180910390f35b34801561075d57600080fd5b50610778600480360381019061077391906143df565b6119be565b6040516107859190614158565b60405180910390f35b34801561079a57600080fd5b506107a3611a75565b005b3480156107b157600080fd5b506107cc60048036038101906107c79190613fde565b611afd565b6040516107d99190614158565b60405180910390f35b3480156107ee57600080fd5b5061080960048036038101906108049190613fde565b611b15565b60405161081792919061441b565b60405180910390f35b34801561082c57600080fd5b5061084760048036038101906108429190614444565b611b65565b6040516108549190614158565b60405180910390f35b34801561086957600080fd5b50610884600480360381019061087f9190613fde565b611b80565b6040516108919190614349565b60405180910390f35b3480156108a657600080fd5b506108c160048036038101906108bc91906144ab565b611b96565b6040516108ce9190614158565b60405180910390f35b3480156108e357600080fd5b506108ec611bb1565b6040516108f9919061404c565b60405180910390f35b34801561090e57600080fd5b50610929600480360381019061092491906144fe565b611bdb565b6040516109369190614158565b60405180910390f35b34801561094b57600080fd5b5061096660048036038101906109619190613fde565b611f46565b604051610973919061458b565b60405180910390f35b61099660048036038101906109919190613fde565b61205d565b005b3480156109a457600080fd5b506109ad612302565b6040516109ba9190613f86565b60405180910390f35b3480156109cf57600080fd5b506109ea60048036038101906109e591906145a6565b612394565b6040516109f79190614158565b60405180910390f35b348015610a0c57600080fd5b50610a276004803603810190610a229190614109565b6123f1565b604051610a349190614158565b60405180910390f35b348015610a4957600080fd5b50610a646004803603810190610a5f9190613fde565b612416565b604051610a719190614158565b60405180910390f35b348015610a8657600080fd5b50610aa16004803603810190610a9c9190614625565b61242e565b005b348015610aaf57600080fd5b50610aca6004803603810190610ac59190613fde565b612444565b604051610ad79190614349565b60405180910390f35b348015610aec57600080fd5b50610b076004803603810190610b029190614665565b61245a565b604051610b149190613edb565b60405180910390f35b348015610b2957600080fd5b50610b446004803603810190610b3f9190613fde565b6124c9565b604051610b519190614158565b60405180910390f35b348015610b6657600080fd5b50610b816004803603810190610b7c9190614692565b61251d565b604051610b8e9190614349565b60405180910390f35b348015610ba357600080fd5b50610bbe6004803603810190610bb99190614807565b6125e9565b005b610bda6004803603810190610bd591906145a6565b61264b565b005b348015610be857600080fd5b50610c036004803603810190610bfe9190613fde565b612960565b604051610c109190614158565b60405180910390f35b610c336004803603810190610c2e9190613fde565b612978565b005b348015610c4157600080fd5b50610c5c6004803603810190610c579190613fde565b612bff565b604051610c699190613f86565b60405180910390f35b348015610c7e57600080fd5b50610c996004803603810190610c949190613fde565b612ca6565b604051610ca69190614158565b60405180910390f35b348015610cbb57600080fd5b50610cd66004803603810190610cd1919061488a565b612cc3565b604051610ce39190613edb565b60405180910390f35b348015610cf857600080fd5b50610d136004803603810190610d0e91906143df565b612d57565b005b348015610d2157600080fd5b50610d2a612e4e565b604051610d379190613edb565b60405180910390f35b348015610d4c57600080fd5b50610d676004803603810190610d629190613fde565b612e61565b604051610d749190614349565b60405180910390f35b60007f80ac58cd000000000000000000000000000000000000000000000000000000007bffffffffffffffffffffffffffffffffffffffffffffffffffffffff1916827bffffffffffffffffffffffffffffffffffffffffffffffffffffffff19161480610e4857507f5b5e139f000000000000000000000000000000000000000000000000000000007bffffffffffffffffffffffffffffffffffffffffffffffffffffffff1916827bffffffffffffffffffffffffffffffffffffffffffffffffffffffff1916145b80610e585750610e5782612e82565b5b9050919050565b606060008054610e6e906148f9565b80601f0160208091040260200160405190810160405280929190818152602001828054610e9a906148f9565b8015610ee75780601f10610ebc57610100808354040283529160200191610ee7565b820191906000526020600020905b815481529060010190602001808311610eca57829003601f168201915b5050505050905090565b6000610efc82612eec565b610f3b576040517f08c379a0000000000000000000000000000000000000000000000000000000008152600401610f329061499c565b60405180910390fd5b6004600083815260200190815260200160002060009054906101000a900473ffffffffffffffffffffffffffffffffffffffff169050919050565b6000610f81826118f7565b90508073ffffffffffffffffffffffffffffffffffffffff168373ffffffffffffffffffffffffffffffffffffffff1603610ff1576040517f08c379a0000000000000000000000000000000000000000000000000000000008152600401610fe890614a2e565b60405180910390fd5b8073ffffffffffffffffffffffffffffffffffffffff16611010612f58565b73ffffffffffffffffffffffffffffffffffffffff16148061103f575061103e81611039612f58565b612cc3565b5b61107e576040517f08c379a000000000000000000000000000000000000000000000000000000000815260040161107590614ac0565b60405180910390fd5b6110888383612f60565b505050565b6010602052816000526040600020602052806000526040600020600091509150505481565b60136020528060005260406000206000915090505481565b6110d2612f58565b73ffffffffffffffffffffffffffffffffffffffff166110f0611bb1565b73ffffffffffffffffffffffffffffffffffffffff1614611146576040517f08c379a000000000000000000000000000000000000000000000000000000000815260040161113d90614b2c565b60405180910390fd5b8060136000848152602001908152602001600020819055506111683383613019565b5050565b611174612f58565b73ffffffffffffffffffffffffffffffffffffffff16611192611bb1565b73ffffffffffffffffffffffffffffffffffffffff16146111e8576040517f08c379a00000000000000000000000000000000000000000000000000000000081526004016111df90614b2c565b60405180910390fd5b600082826040516020016111fd929190614bb8565b6040516020818303038152906040528051906020012090506000601060008781526020019081526020016000206000838152602001908152602001600020541461127c576040517f08c379a000000000000000000000000000000000000000000000000000000000815260040161127390614c30565b60405180910390fd5b61128542612444565b60ff168260ff16106112e85761129a42611f46565b61ffff168361ffff16106112e3576040517f08c379a00000000000000000000000000000000000000000000000000000000081526004016112da90614cc2565b60405180910390fd5b611353565b6112f142612444565b60ff168260ff1610156113525761130742611f46565b61ffff168361ffff161115611351576040517f08c379a000000000000000000000000000000000000000000000000000000000815260040161134890614cc2565b60405180910390fd5b5b5b60006113716012600088815260200190815260200160002054611f46565b905060006113916012600089815260200190815260200160002054612444565b90508461ffff168261ffff1610806113c257508461ffff168261ffff161480156113c157508360ff168160ff1611155b5b611401576040517f08c379a00000000000000000000000000000000000000000000000000000000081526004016113f890614d7a565b60405180910390fd5b85600c600089815260200190815260200160002060008282546114249190614dc9565b9250508190555085600f60008981526020019081526020016000206000858152602001908152602001600020600082825461145f9190614dc9565b925050819055506001600e6000898152602001908152602001600020600082825461148a9190614dc9565b9250508190555050505050505050565b6114ab6114a5612f58565b826131f2565b6114ea576040517f08c379a00000000000000000000000000000000000000000000000000000000081526004016114e190614e6f565b60405180910390fd5b6114f58383836132d0565b505050565b600d6020528060005260406000206000915054906101000a900473ffffffffffffffffffffffffffffffffffffffff1681565b600780600001805461153e906148f9565b80601f016020809104026020016040519081016040528092919081815260200182805461156a906148f9565b80156115b75780601f1061158c576101008083540402835291602001916115b7565b820191906000526020600020905b81548152906001019060200180831161159a57829003601f168201915b5050505050908060010180546115cc906148f9565b80601f01602080910402602001604051908101604052809291908181526020018280546115f8906148f9565b80156116455780601f1061161a57610100808354040283529160200191611645565b820191906000526020600020905b81548152906001019060200180831161162857829003601f168201915b50505050509080600201805461165a906148f9565b80601f0160208091040260200160405190810160405280929190818152602001828054611686906148f9565b80156116d35780601f106116a8576101008083540402835291602001916116d3565b820191906000526020600020905b8154815290600101906020018083116116b657829003601f168201915b5050505050908060030154905084565b60006018603c80846116f59190614ebe565b6116ff9190614ebe565b6117099190614eef565b9050919050565b61172b838383604051806020016040528060008152506125e9565b505050565b60006007600462015180846117459190614ebe565b61174f9190614dc9565b6117599190614eef565b9050919050565b6000600e6000838152602001908152602001600020549050919050565b611785612f58565b73ffffffffffffffffffffffffffffffffffffffff166117a3611bb1565b73ffffffffffffffffffffffffffffffffffffffff16146117f9576040517f08c379a00000000000000000000000000000000000000000000000000000000081526004016117f090614b2c565b60405180910390fd5b6005600e6000838152602001908152602001600020541015611850576040517f08c379a000000000000000000000000000000000000000000000000000000000815260040161184790614f92565b60405180910390fd5b6000600d600083815260200190815260200160002060006101000a81548173ffffffffffffffffffffffffffffffffffffffff021916908373ffffffffffffffffffffffffffffffffffffffff16021790555050565b60126020528060005260406000206000915090505481565b600060136000838152602001908152602001600020549050919050565b60006118ec86868686866000611bdb565b905095945050505050565b6000806002600084815260200190815260200160002060009054906101000a900473ffffffffffffffffffffffffffffffffffffffff169050600073ffffffffffffffffffffffffffffffffffffffff168173ffffffffffffffffffffffffffffffffffffffff160361199f576040517f08c379a000000000000000000000000000000000000000000000000000000000815260040161199690615024565b60405180910390fd5b80915050919050565b60006119b382613536565b604001519050919050565b60008073ffffffffffffffffffffffffffffffffffffffff168273ffffffffffffffffffffffffffffffffffffffff1603611a2e576040517f08c379a0000000000000000000000000000000000000000000000000000000008152600401611a25906150b6565b60405180910390fd5b600360008373ffffffffffffffffffffffffffffffffffffffff1673ffffffffffffffffffffffffffffffffffffffff168152602001908152602001600020549050919050565b611a7d612f58565b73ffffffffffffffffffffffffffffffffffffffff16611a9b611bb1565b73ffffffffffffffffffffffffffffffffffffffff1614611af1576040517f08c379a0000000000000000000000000000000000000000000000000000000008152600401611ae890614b2c565b60405180910390fd5b611afb6000613747565b565b600e6020528060005260406000206000915090505481565b6000806000611b366012600086815260200190815260200160002054611f46565b90506000611b566012600087815260200190815260200160002054612444565b90508181935093505050915091565b6000611b7685858585600080611bdb565b9050949350505050565b6000603c82611b8f9190614eef565b9050919050565b6000611ba88484846000806000611bdb565b90509392505050565b6000600660009054906101000a900473ffffffffffffffffffffffffffffffffffffffff16905090565b6000806107b290505b8761ffff168161ffff161015611c3f57611bfd8161245a565b15611c19576301e2850082611c129190614dc9565b9150611c2c565b6301e1338082611c299190614dc9565b91505b8080611c37906150d6565b915050611be4565b611c47613db1565b601f816000600c8110611c5d57611c5c615100565b5b602002019060ff16908160ff1681525050611c778961245a565b15611ca857601d816001600c8110611c9257611c91615100565b5b602002019060ff16908160ff1681525050611cd0565b601c816001600c8110611cbe57611cbd615100565b5b602002019060ff16908160ff16815250505b601f816002600c8110611ce657611ce5615100565b5b602002019060ff16908160ff1681525050601e816003600c8110611d0d57611d0c615100565b5b602002019060ff16908160ff1681525050601f816004600c8110611d3457611d33615100565b5b602002019060ff16908160ff1681525050601e816005600c8110611d5b57611d5a615100565b5b602002019060ff16908160ff1681525050601f816006600c8110611d8257611d81615100565b5b602002019060ff16908160ff1681525050601f816007600c8110611da957611da8615100565b5b602002019060ff16908160ff1681525050601e816008600c8110611dd057611dcf615100565b5b602002019060ff16908160ff1681525050601f816009600c8110611df757611df6615100565b5b602002019060ff16908160ff1681525050601e81600a600c8110611e1e57611e1d615100565b5b602002019060ff16908160ff1681525050601f81600b600c8110611e4557611e44615100565b5b602002019060ff16908160ff1681525050600191505b8760ff168261ffff161015611ec35780600183611e78919061512f565b61ffff16600c8110611e8d57611e8c615100565b5b602002015160ff1662015180611ea39190615165565b83611eae9190614dc9565b92508180611ebb906150d6565b925050611e5b565b600187611ed091906151a7565b60ff1662015180611ee19190615165565b83611eec9190614dc9565b92508560ff16610e10611eff9190615165565b83611f0a9190614dc9565b92508460ff16603c611f1c9190615165565b83611f279190614dc9565b92508360ff1683611f389190614dc9565b925050509695505050505050565b600080600090506000806301e1338085611f609190614ebe565b6107b261ffff16611f719190614dc9565b9150611f826107b261ffff166124c9565b611f8f8361ffff166124c9565b611f9991906151dc565b9050806301e28500611fab9190615165565b83611fb69190614dc9565b9250806107b283611fc7919061512f565b61ffff16611fd591906151dc565b6301e13380611fe49190615165565b83611fef9190614dc9565b92505b848311156120525761200f60018361200a919061512f565b61245a565b1561202b576301e285008361202491906151dc565b925061203e565b6301e133808361203b91906151dc565b92505b60018261204b919061512f565b9150611ff2565b819350505050919050565b80600d600082815260200190815260200160002060009054906101000a900473ffffffffffffffffffffffffffffffffffffffff1673ffffffffffffffffffffffffffffffffffffffff163373ffffffffffffffffffffffffffffffffffffffff16146120c957600080fd5b60006120d442611f46565b6120dd42612444565b6040516020016120ee929190614bb8565b6040516020818303038152906040528051906020012090506000601060008581526020019081526020016000206000838152602001908152602001600020541461216d576040517f08c379a000000000000000000000000000000000000000000000000000000000815260040161216490614c30565b60405180910390fd5b6000601360008581526020019081526020016000205490508034146121c7576040517f08c379a00000000000000000000000000000000000000000000000000000000081526004016121be9061525c565b60405180910390fd5b60006121d2856118f7565b9050426011600087815260200190815260200160002081905550816010600087815260200190815260200160002060008581526020019081526020016000208190555060008173ffffffffffffffffffffffffffffffffffffffff163460405161223b906152ad565b60006040518083038185875af1925050503d8060008114612278576040519150601f19603f3d011682016040523d82523d6000602084013e61227d565b606091505b50509050806122c1576040517f08c379a00000000000000000000000000000000000000000000000000000000081526004016122b89061530e565b60405180910390fd5b7f965e4342438576e07394048cb00f50e484e311e5249843fc69dbad9bac3eb63f33876040516122f292919061532e565b60405180910390a1505050505050565b606060018054612311906148f9565b80601f016020809104026020016040519081016040528092919081815260200182805461233d906148f9565b801561238a5780601f1061235f5761010080835404028352916020019161238a565b820191906000526020600020905b81548152906001019060200180831161236d57829003601f168201915b5050505050905090565b60008083836040516020016123aa929190614bb8565b604051602081830303815290604052805190602001209050601060008681526020019081526020016000206000828152602001908152602001600020549150509392505050565b600f602052816000526040600020602052806000526040600020600091509150505481565b60116020528060005260406000206000915090505481565b612440612439612f58565b838361380d565b5050565b600061244f82613536565b602001519050919050565b60008060048361246a9190615357565b61ffff161461247c57600090506124c4565b600060648361248b9190615357565b61ffff161461249d57600190506124c4565b6000610190836124ad9190615357565b61ffff16146124bf57600090506124c4565b600190505b919050565b60006001826124d891906151dc565b9150610190826124e89190614ebe565b6064836124f59190614ebe565b6004846125029190614ebe565b61250c91906151dc565b6125169190614dc9565b9050919050565b600060018360ff161480612534575060038360ff16145b80612542575060058360ff16145b80612550575060078360ff16145b8061255e575060088360ff16145b8061256c5750600a8360ff16145b8061257a5750600c8360ff16145b1561258857601f90506125e3565b60048360ff16148061259d575060068360ff16145b806125ab575060098360ff16145b806125b95750600b8360ff16145b156125c757601e90506125e3565b6125d08261245a565b156125de57601d90506125e3565b601c90505b92915050565b6125fa6125f4612f58565b836131f2565b612639576040517f08c379a000000000000000000000000000000000000000000000000000000000815260040161263090614e6f565b60405180910390fd5b61264584848484613979565b50505050565b82600d600082815260200190815260200160002060009054906101000a900473ffffffffffffffffffffffffffffffffffffffff1673ffffffffffffffffffffffffffffffffffffffff163373ffffffffffffffffffffffffffffffffffffffff16146126b757600080fd5b600b60009054906101000a900460ff16156126d157600080fd5b6001600b60006101000a81548160ff02191690831515021790555060008383604051602001612701929190614bb8565b6040516020818303038152906040528051906020012090506000600f600087815260200190815260200160002060008381526020019081526020016000205411612780576040517f08c379a0000000000000000000000000000000000000000000000000000000008152600401612777906153d4565b60405180910390fd5b6000601360008781526020019081526020016000205490508034146127da576040517f08c379a00000000000000000000000000000000000000000000000000000000081526004016127d190615466565b60405180910390fd5b60006127e5876118f7565b905060008173ffffffffffffffffffffffffffffffffffffffff163460405161280d906152ad565b60006040518083038185875af1925050503d806000811461284a576040519150601f19603f3d011682016040523d82523d6000602084013e61284f565b606091505b5050905080612893576040517f08c379a000000000000000000000000000000000000000000000000000000000815260040161288a906154d2565b60405180910390fd5b6000600f60008a815260200190815260200160002060008681526020019081526020016000208190555082601060008a815260200190815260200160002060008681526020019081526020016000208190555082600c60008a8152602001908152602001600020600082825461290991906151dc565b925050819055506001600e60008a8152602001908152602001600020600082825461293491906151dc565b92505081905550505050506000600b60006101000a81548160ff02191690831515021790555050505050565b600c6020528060005260406000206000915090505481565b600073ffffffffffffffffffffffffffffffffffffffff16600d600083815260200190815260200160002060009054906101000a900473ffffffffffffffffffffffffffffffffffffffff1673ffffffffffffffffffffffffffffffffffffffff1614612a1a576040517f08c379a0000000000000000000000000000000000000000000000000000000008152600401612a119061553e565b60405180910390fd5b612a23816118f7565b73ffffffffffffffffffffffffffffffffffffffff163373ffffffffffffffffffffffffffffffffffffffff1603612a90576040517f08c379a0000000000000000000000000000000000000000000000000000000008152600401612a87906155aa565b60405180910390fd5b6000600c60008381526020019081526020016000205414612ae6576040517f08c379a0000000000000000000000000000000000000000000000000000000008152600401612add90615616565b60405180910390fd5b600060136000838152602001908152602001600020549050803414612b40576040517f08c379a0000000000000000000000000000000000000000000000000000000008152600401612b3790615682565b60405180910390fd5b6000612b4b836118f7565b905042601260008581526020019081526020016000208190555033600d600085815260200190815260200160002060006101000a81548173ffffffffffffffffffffffffffffffffffffffff021916908373ffffffffffffffffffffffffffffffffffffffff160217905550612bc181346139d5565b7f5020df8731194fc4e1b438f02ba6e904dbd6989cc61d3dd5ff842d5775785d183384604051612bf292919061532e565b60405180910390a1505050565b6060612c0a82612eec565b612c49576040517f08c379a0000000000000000000000000000000000000000000000000000000008152600401612c4090615714565b60405180910390fd5b6000612c53613a86565b90506000815111612c735760405180602001604052806000815250612c9e565b80612c7d84613a9d565b604051602001612c8e929190615770565b6040516020818303038152906040525b915050919050565b6000600c6000838152602001908152602001600020549050919050565b6000600560008473ffffffffffffffffffffffffffffffffffffffff1673ffffffffffffffffffffffffffffffffffffffff16815260200190815260200160002060008373ffffffffffffffffffffffffffffffffffffffff1673ffffffffffffffffffffffffffffffffffffffff16815260200190815260200160002060009054906101000a900460ff16905092915050565b612d5f612f58565b73ffffffffffffffffffffffffffffffffffffffff16612d7d611bb1565b73ffffffffffffffffffffffffffffffffffffffff1614612dd3576040517f08c379a0000000000000000000000000000000000000000000000000000000008152600401612dca90614b2c565b60405180910390fd5b600073ffffffffffffffffffffffffffffffffffffffff168173ffffffffffffffffffffffffffffffffffffffff1603612e42576040517f08c379a0000000000000000000000000000000000000000000000000000000008152600401612e3990615806565b60405180910390fd5b612e4b81613747565b50565b600b60009054906101000a900460ff1681565b6000603c8083612e719190614ebe565b612e7b9190614eef565b9050919050565b60007f01ffc9a7000000000000000000000000000000000000000000000000000000007bffffffffffffffffffffffffffffffffffffffffffffffffffffffff1916827bffffffffffffffffffffffffffffffffffffffffffffffffffffffff1916149050919050565b60008073ffffffffffffffffffffffffffffffffffffffff166002600084815260200190815260200160002060009054906101000a900473ffffffffffffffffffffffffffffffffffffffff1673ffffffffffffffffffffffffffffffffffffffff1614159050919050565b600033905090565b816004600083815260200190815260200160002060006101000a81548173ffffffffffffffffffffffffffffffffffffffff021916908373ffffffffffffffffffffffffffffffffffffffff160217905550808273ffffffffffffffffffffffffffffffffffffffff16612fd3836118f7565b73ffffffffffffffffffffffffffffffffffffffff167f8c5be1e5ebec7d5bd14f71427d1e84f3dd0314c0f7b2291e5b200ac8c7c3b92560405160405180910390a45050565b600073ffffffffffffffffffffffffffffffffffffffff168273ffffffffffffffffffffffffffffffffffffffff1603613088576040517f08c379a000000000000000000000000000000000000000000000000000000000815260040161307f90615872565b60405180910390fd5b61309181612eec565b156130d1576040517f08c379a00000000000000000000000000000000000000000000000000000000081526004016130c8906158de565b60405180910390fd5b6130dd60008383613bfd565b6001600360008473ffffffffffffffffffffffffffffffffffffffff1673ffffffffffffffffffffffffffffffffffffffff168152602001908152602001600020600082825461312d9190614dc9565b92505081905550816002600083815260200190815260200160002060006101000a81548173ffffffffffffffffffffffffffffffffffffffff021916908373ffffffffffffffffffffffffffffffffffffffff160217905550808273ffffffffffffffffffffffffffffffffffffffff16600073ffffffffffffffffffffffffffffffffffffffff167fddf252ad1be2c89b69c2b068fc378daa952ba7f163c4a11628f55a4df523b3ef60405160405180910390a46131ee60008383613c02565b5050565b60006131fd82612eec565b61323c576040517f08c379a000000000000000000000000000000000000000000000000000000000815260040161323390615970565b60405180910390fd5b6000613247836118f7565b90508073ffffffffffffffffffffffffffffffffffffffff168473ffffffffffffffffffffffffffffffffffffffff16148061328957506132888185612cc3565b5b806132c757508373ffffffffffffffffffffffffffffffffffffffff166132af84610ef1565b73ffffffffffffffffffffffffffffffffffffffff16145b91505092915050565b8273ffffffffffffffffffffffffffffffffffffffff166132f0826118f7565b73ffffffffffffffffffffffffffffffffffffffff1614613346576040517f08c379a000000000000000000000000000000000000000000000000000000000815260040161333d90615a02565b60405180910390fd5b600073ffffffffffffffffffffffffffffffffffffffff168273ffffffffffffffffffffffffffffffffffffffff16036133b5576040517f08c379a00000000000000000000000000000000000000000000000000000000081526004016133ac90615a94565b60405180910390fd5b6133c0838383613bfd565b6133cb600082612f60565b6001600360008573ffffffffffffffffffffffffffffffffffffffff1673ffffffffffffffffffffffffffffffffffffffff168152602001908152602001600020600082825461341b91906151dc565b925050819055506001600360008473ffffffffffffffffffffffffffffffffffffffff1673ffffffffffffffffffffffffffffffffffffffff16815260200190815260200160002060008282546134729190614dc9565b92505081905550816002600083815260200190815260200160002060006101000a81548173ffffffffffffffffffffffffffffffffffffffff021916908373ffffffffffffffffffffffffffffffffffffffff160217905550808273ffffffffffffffffffffffffffffffffffffffff168473ffffffffffffffffffffffffffffffffffffffff167fddf252ad1be2c89b69c2b068fc378daa952ba7f163c4a11628f55a4df523b3ef60405160405180910390a4613531838383613c02565b505050565b61353e613dd4565b6000808061354b85611f46565b846000019061ffff16908161ffff168152505061356d6107b261ffff166124c9565b61357e856000015161ffff166124c9565b61358891906151dc565b9150816301e2850061359a9190615165565b836135a59190614dc9565b9250816107b285600001516135ba919061512f565b61ffff166135c891906151dc565b6301e133806135d79190615165565b836135e29190614dc9565b92506000600191505b600c8260ff16116136625761360482866000015161251d565b60ff16620151806136159190615165565b90508584826136249190614dc9565b11156136415781856020019060ff16908160ff1681525050613662565b808461364d9190614dc9565b9350818061365a90615ab4565b9250506135eb565b600191505b6136798560200151866000015161251d565b60ff168260ff16116136d6578584620151806136959190614dc9565b11156136b25781856040019060ff16908160ff16815250506136d6565b62015180846136c19190614dc9565b935081806136ce90615ab4565b925050613667565b6136df866116e3565b856060019060ff16908160ff16815250506136f986612e61565b856080019060ff16908160ff168152505061371386611b80565b8560a0019060ff16908160ff168152505061372d86611730565b8560c0019060ff16908160ff168152505050505050919050565b6000600660009054906101000a900473ffffffffffffffffffffffffffffffffffffffff16905081600660006101000a81548173ffffffffffffffffffffffffffffffffffffffff021916908373ffffffffffffffffffffffffffffffffffffffff1602179055508173ffffffffffffffffffffffffffffffffffffffff168173ffffffffffffffffffffffffffffffffffffffff167f8be0079c531659141344cd1fd0a4f28419497f9722a3daafe3b4186f6b6457e060405160405180910390a35050565b8173ffffffffffffffffffffffffffffffffffffffff168373ffffffffffffffffffffffffffffffffffffffff160361387b576040517f08c379a000000000000000000000000000000000000000000000000000000000815260040161387290615b29565b60405180910390fd5b80600560008573ffffffffffffffffffffffffffffffffffffffff1673ffffffffffffffffffffffffffffffffffffffff16815260200190815260200160002060008473ffffffffffffffffffffffffffffffffffffffff1673ffffffffffffffffffffffffffffffffffffffff16815260200190815260200160002060006101000a81548160ff0219169083151502179055508173ffffffffffffffffffffffffffffffffffffffff168373ffffffffffffffffffffffffffffffffffffffff167f17307eab39ab6107e8899845ad3d59bd9653f200f220920489ca2b5937696c318360405161396c9190613edb565b60405180910390a3505050565b6139848484846132d0565b61399084848484613c07565b6139cf576040517f08c379a00000000000000000000000000000000000000000000000000000000081526004016139c690615bbb565b60405180910390fd5b50505050565b60008273ffffffffffffffffffffffffffffffffffffffff16826040516139fb906152ad565b60006040518083038185875af1925050503d8060008114613a38576040519150601f19603f3d011682016040523d82523d6000602084013e613a3d565b606091505b5050905080613a81576040517f08c379a0000000000000000000000000000000000000000000000000000000008152600401613a7890615c27565b60405180910390fd5b505050565b606060405180602001604052806000815250905090565b606060008203613ae4576040518060400160405280600181526020017f30000000000000000000000000000000000000000000000000000000000000008152509050613bf8565b600082905060005b60008214613b16578080613aff90615c47565b915050600a82613b0f9190614ebe565b9150613aec565b60008167ffffffffffffffff811115613b3257613b316146dc565b5b6040519080825280601f01601f191660200182016040528015613b645781602001600182028036833780820191505090505b5090505b60008514613bf157600182613b7d91906151dc565b9150600a85613b8c9190614eef565b6030613b989190614dc9565b60f81b818381518110613bae57613bad615100565b5b60200101907effffffffffffffffffffffffffffffffffffffffffffffffffffffffffffff1916908160001a905350600a85613bea9190614ebe565b9450613b68565b8093505050505b919050565b505050565b505050565b6000613c288473ffffffffffffffffffffffffffffffffffffffff16613d8e565b15613d81578373ffffffffffffffffffffffffffffffffffffffff1663150b7a02613c51612f58565b8786866040518563ffffffff1660e01b8152600401613c739493929190615ce4565b6020604051808303816000875af1925050508015613caf57506040513d601f19601f82011682018060405250810190613cac9190615d45565b60015b613d31573d8060008114613cdf576040519150601f19603f3d011682016040523d82523d6000602084013e613ce4565b606091505b506000815103613d29576040517f08c379a0000000000000000000000000000000000000000000000000000000008152600401613d2090615bbb565b60405180910390fd5b805181602001fd5b63150b7a0260e01b7bffffffffffffffffffffffffffffffffffffffffffffffffffffffff1916817bffffffffffffffffffffffffffffffffffffffffffffffffffffffff191614915050613d86565b600190505b949350505050565b6000808273ffffffffffffffffffffffffffffffffffffffff163b119050919050565b604051806101800160405280600c90602082028036833780820191505090505090565b6040518060e00160405280600061ffff168152602001600060ff168152602001600060ff168152602001600060ff168152602001600060ff168152602001600060ff168152602001600060ff1681525090565b6000604051905090565b600080fd5b600080fd5b60007fffffffff0000000000000000000000000000000000000000000000000000000082169050919050565b613e7081613e3b565b8114613e7b57600080fd5b50565b600081359050613e8d81613e67565b92915050565b600060208284031215613ea957613ea8613e31565b5b6000613eb784828501613e7e565b91505092915050565b60008115159050919050565b613ed581613ec0565b82525050565b6000602082019050613ef06000830184613ecc565b92915050565b600081519050919050565b600082825260208201905092915050565b60005b83811015613f30578082015181840152602081019050613f15565b60008484015250505050565b6000601f19601f8301169050919050565b6000613f5882613ef6565b613f628185613f01565b9350613f72818560208601613f12565b613f7b81613f3c565b840191505092915050565b60006020820190508181036000830152613fa08184613f4d565b905092915050565b6000819050919050565b613fbb81613fa8565b8114613fc657600080fd5b50565b600081359050613fd881613fb2565b92915050565b600060208284031215613ff457613ff3613e31565b5b600061400284828501613fc9565b91505092915050565b600073ffffffffffffffffffffffffffffffffffffffff82169050919050565b60006140368261400b565b9050919050565b6140468161402b565b82525050565b6000602082019050614061600083018461403d565b92915050565b6140708161402b565b811461407b57600080fd5b50565b60008135905061408d81614067565b92915050565b600080604083850312156140aa576140a9613e31565b5b60006140b88582860161407e565b92505060206140c985828601613fc9565b9150509250929050565b6000819050919050565b6140e6816140d3565b81146140f157600080fd5b50565b600081359050614103816140dd565b92915050565b600080604083850312156141205761411f613e31565b5b600061412e85828601613fc9565b925050602061413f858286016140f4565b9150509250929050565b61415281613fa8565b82525050565b600060208201905061416d6000830184614149565b92915050565b6000806040838503121561418a57614189613e31565b5b600061419885828601613fc9565b92505060206141a985828601613fc9565b9150509250929050565b600061ffff82169050919050565b6141ca816141b3565b81146141d557600080fd5b50565b6000813590506141e7816141c1565b92915050565b600060ff82169050919050565b614203816141ed565b811461420e57600080fd5b50565b600081359050614220816141fa565b92915050565b600080600080608085870312156142405761423f613e31565b5b600061424e87828801613fc9565b945050602061425f87828801613fc9565b9350506040614270878288016141d8565b925050606061428187828801614211565b91505092959194509250565b6000806000606084860312156142a6576142a5613e31565b5b60006142b48682870161407e565b93505060206142c58682870161407e565b92505060406142d686828701613fc9565b9150509250925092565b600060808201905081810360008301526142fa8187613f4d565b9050818103602083015261430e8186613f4d565b905081810360408301526143228185613f4d565b90506143316060830184614149565b95945050505050565b614343816141ed565b82525050565b600060208201905061435e600083018461433a565b92915050565b600080600080600060a086880312156143805761437f613e31565b5b600061438e888289016141d8565b955050602061439f88828901614211565b94505060406143b088828901614211565b93505060606143c188828901614211565b92505060806143d288828901614211565b9150509295509295909350565b6000602082840312156143f5576143f4613e31565b5b60006144038482850161407e565b91505092915050565b614415816141b3565b82525050565b6000604082019050614430600083018561440c565b61443d602083018461433a565b9392505050565b6000806000806080858703121561445e5761445d613e31565b5b600061446c878288016141d8565b945050602061447d87828801614211565b935050604061448e87828801614211565b925050606061449f87828801614211565b91505092959194509250565b6000806000606084860312156144c4576144c3613e31565b5b60006144d2868287016141d8565b93505060206144e386828701614211565b92505060406144f486828701614211565b9150509250925092565b60008060008060008060c0878903121561451b5761451a613e31565b5b600061452989828a016141d8565b965050602061453a89828a01614211565b955050604061454b89828a01614211565b945050606061455c89828a01614211565b935050608061456d89828a01614211565b92505060a061457e89828a01614211565b9150509295509295509295565b60006020820190506145a0600083018461440c565b92915050565b6000806000606084860312156145bf576145be613e31565b5b60006145cd86828701613fc9565b93505060206145de868287016141d8565b92505060406145ef86828701614211565b9150509250925092565b61460281613ec0565b811461460d57600080fd5b50565b60008135905061461f816145f9565b92915050565b6000806040838503121561463c5761463b613e31565b5b600061464a8582860161407e565b925050602061465b85828601614610565b9150509250929050565b60006020828403121561467b5761467a613e31565b5b6000614689848285016141d8565b91505092915050565b600080604083850312156146a9576146a8613e31565b5b60006146b785828601614211565b92505060206146c8858286016141d8565b9150509250929050565b600080fd5b600080fd5b7f4e487b7100000000000000000000000000000000000000000000000000000000600052604160045260246000fd5b61471482613f3c565b810181811067ffffffffffffffff82111715614733576147326146dc565b5b80604052505050565b6000614746613e27565b9050614752828261470b565b919050565b600067ffffffffffffffff821115614772576147716146dc565b5b61477b82613f3c565b9050602081019050919050565b82818337600083830152505050565b60006147aa6147a584614757565b61473c565b9050828152602081018484840111156147c6576147c56146d7565b5b6147d1848285614788565b509392505050565b600082601f8301126147ee576147ed6146d2565b5b81356147fe848260208601614797565b91505092915050565b6000806000806080858703121561482157614820613e31565b5b600061482f8782880161407e565b94505060206148408782880161407e565b935050604061485187828801613fc9565b925050606085013567ffffffffffffffff81111561487257614871613e36565b5b61487e878288016147d9565b91505092959194509250565b600080604083850312156148a1576148a0613e31565b5b60006148af8582860161407e565b92505060206148c08582860161407e565b9150509250929050565b7f4e487b7100000000000000000000000000000000000000000000000000000000600052602260045260246000fd5b6000600282049050600182168061491157607f821691505b602082108103614924576149236148ca565b5b50919050565b7f4552433732313a20617070726f76656420717565727920666f72206e6f6e657860008201527f697374656e7420746f6b656e0000000000000000000000000000000000000000602082015250565b6000614986602c83613f01565b91506149918261492a565b604082019050919050565b600060208201905081810360008301526149b581614979565b9050919050565b7f4552433732313a20617070726f76616c20746f2063757272656e74206f776e6560008201527f7200000000000000000000000000000000000000000000000000000000000000602082015250565b6000614a18602183613f01565b9150614a23826149bc565b604082019050919050565b60006020820190508181036000830152614a4781614a0b565b9050919050565b7f4552433732313a20617070726f76652063616c6c6572206973206e6f74206f7760008201527f6e6572206e6f7220617070726f76656420666f7220616c6c0000000000000000602082015250565b6000614aaa603883613f01565b9150614ab582614a4e565b604082019050919050565b60006020820190508181036000830152614ad981614a9d565b9050919050565b7f4f776e61626c653a2063616c6c6572206973206e6f7420746865206f776e6572600082015250565b6000614b16602083613f01565b9150614b2182614ae0565b602082019050919050565b60006020820190508181036000830152614b4581614b09565b9050919050565b60008160f01b9050919050565b6000614b6482614b4c565b9050919050565b614b7c614b77826141b3565b614b59565b82525050565b60008160f81b9050919050565b6000614b9a82614b82565b9050919050565b614bb2614bad826141ed565b614b8f565b82525050565b6000614bc48285614b6b565b600282019150614bd48284614ba1565b6001820191508190509392505050565b7f4d6f6e746820616c726561647920706169640000000000000000000000000000600082015250565b6000614c1a601283613f01565b9150614c2582614be4565b602082019050919050565b60006020820190508181036000830152614c4981614c0d565b9050919050565b7f496d706f737369626c6520746f206164642063686172676520666f722066757460008201527f7572652064617465730000000000000000000000000000000000000000000000602082015250565b6000614cac602983613f01565b9150614cb782614c50565b604082019050919050565b60006020820190508181036000830152614cdb81614c9f565b9050919050565b7f436861726765732063616e6e6f7420626520656e746572656420666f7220646160008201527f746573207072696f7220746f20746865207075726368617365206f662074686560208201527f2061737365740000000000000000000000000000000000000000000000000000604082015250565b6000614d64604683613f01565b9150614d6f82614ce2565b606082019050919050565b60006020820190508181036000830152614d9381614d57565b9050919050565b7f4e487b7100000000000000000000000000000000000000000000000000000000600052601160045260246000fd5b6000614dd482613fa8565b9150614ddf83613fa8565b9250828201905080821115614df757614df6614d9a565b5b92915050565b7f4552433732313a207472616e736665722063616c6c6572206973206e6f74206f60008201527f776e6572206e6f7220617070726f766564000000000000000000000000000000602082015250565b6000614e59603183613f01565b9150614e6482614dfd565b604082019050919050565b60006020820190508181036000830152614e8881614e4c565b9050919050565b7f4e487b7100000000000000000000000000000000000000000000000000000000600052601260045260246000fd5b6000614ec982613fa8565b9150614ed483613fa8565b925082614ee457614ee3614e8f565b5b828204905092915050565b6000614efa82613fa8565b9150614f0583613fa8565b925082614f1557614f14614e8f565b5b828206905092915050565b7f54656e616e74206d7573742064656274206174206c656173742035206d6f6e7460008201527f6873000000000000000000000000000000000000000000000000000000000000602082015250565b6000614f7c602283613f01565b9150614f8782614f20565b604082019050919050565b60006020820190508181036000830152614fab81614f6f565b9050919050565b7f4552433732313a206f776e657220717565727920666f72206e6f6e657869737460008201527f656e7420746f6b656e0000000000000000000000000000000000000000000000602082015250565b600061500e602983613f01565b915061501982614fb2565b604082019050919050565b6000602082019050818103600083015261503d81615001565b9050919050565b7f4552433732313a2062616c616e636520717565727920666f7220746865207a6560008201527f726f206164647265737300000000000000000000000000000000000000000000602082015250565b60006150a0602a83613f01565b91506150ab82615044565b604082019050919050565b600060208201905081810360008301526150cf81615093565b9050919050565b60006150e1826141b3565b915061ffff82036150f5576150f4614d9a565b5b600182019050919050565b7f4e487b7100000000000000000000000000000000000000000000000000000000600052603260045260246000fd5b600061513a826141b3565b9150615145836141b3565b9250828203905061ffff81111561515f5761515e614d9a565b5b92915050565b600061517082613fa8565b915061517b83613fa8565b925082820261518981613fa8565b915082820484148315176151a05761519f614d9a565b5b5092915050565b60006151b2826141ed565b91506151bd836141ed565b9250828203905060ff8111156151d6576151d5614d9a565b5b92915050565b60006151e782613fa8565b91506151f283613fa8565b925082820390508181111561520a57615209614d9a565b5b92915050565b7f5061796d656e74206e6f7420636f727265637400000000000000000000000000600082015250565b6000615246601383613f01565b915061525182615210565b602082019050919050565b6000602082019050818103600083015261527581615239565b9050919050565b600081905092915050565b50565b600061529760008361527c565b91506152a282615287565b600082019050919050565b60006152b88261528a565b9150819050919050565b7f4d6f6e74686c79207061796d656e74206661696c656400000000000000000000600082015250565b60006152f8601683613f01565b9150615303826152c2565b602082019050919050565b60006020820190508181036000830152615327816152eb565b9050919050565b6000604082019050615343600083018561403d565b6153506020830184614149565b9392505050565b6000615362826141b3565b915061536d836141b3565b92508261537d5761537c614e8f565b5b828206905092915050565b7f4d6f6e746820706169642070726576696f75736c790000000000000000000000600082015250565b60006153be601583613f01565b91506153c982615388565b602082019050919050565b600060208201905081810360008301526153ed816153b1565b9050919050565b7f5061796d656e74206d75737420626520746865206d6f6e74686c79207072696360008201527f6500000000000000000000000000000000000000000000000000000000000000602082015250565b6000615450602183613f01565b915061545b826153f4565b604082019050919050565b6000602082019050818103600083015261547f81615443565b9050919050565b7f436861726765207061796d656e74206661696c65640000000000000000000000600082015250565b60006154bc601583613f01565b91506154c782615486565b602082019050919050565b600060208201905081810360008301526154eb816154af565b9050919050565b7f546f6b656e20616c72656164792072656e746564000000000000000000000000600082015250565b6000615528601483613f01565b9150615533826154f2565b602082019050919050565b600060208201905081810360008301526155578161551b565b9050919050565b7f596f752061726520746865206173736574206f776e6572000000000000000000600082015250565b6000615594601783613f01565b915061559f8261555e565b602082019050919050565b600060208201905081810360008301526155c381615587565b9050919050565b7f41737365742068617665206665657320746f2070617900000000000000000000600082015250565b6000615600601683613f01565b915061560b826155ca565b602082019050919050565b6000602082019050818103600083015261562f816155f3565b9050919050565b7f456e74727920666565206973206e6f7420636f72726563740000000000000000600082015250565b600061566c601883613f01565b915061567782615636565b602082019050919050565b6000602082019050818103600083015261569b8161565f565b9050919050565b7f4552433732314d657461646174613a2055524920717565727920666f72206e6f60008201527f6e6578697374656e7420746f6b656e0000000000000000000000000000000000602082015250565b60006156fe602f83613f01565b9150615709826156a2565b604082019050919050565b6000602082019050818103600083015261572d816156f1565b9050919050565b600081905092915050565b600061574a82613ef6565b6157548185615734565b9350615764818560208601613f12565b80840191505092915050565b600061577c828561573f565b9150615788828461573f565b91508190509392505050565b7f4f776e61626c653a206e6577206f776e657220697320746865207a65726f206160008201527f6464726573730000000000000000000000000000000000000000000000000000602082015250565b60006157f0602683613f01565b91506157fb82615794565b604082019050919050565b6000602082019050818103600083015261581f816157e3565b9050919050565b7f4552433732313a206d696e7420746f20746865207a65726f2061646472657373600082015250565b600061585c602083613f01565b915061586782615826565b602082019050919050565b6000602082019050818103600083015261588b8161584f565b9050919050565b7f4552433732313a20746f6b656e20616c7265616479206d696e74656400000000600082015250565b60006158c8601c83613f01565b91506158d382615892565b602082019050919050565b600060208201905081810360008301526158f7816158bb565b9050919050565b7f4552433732313a206f70657261746f7220717565727920666f72206e6f6e657860008201527f697374656e7420746f6b656e0000000000000000000000000000000000000000602082015250565b600061595a602c83613f01565b9150615965826158fe565b604082019050919050565b600060208201905081810360008301526159898161594d565b9050919050565b7f4552433732313a207472616e736665722066726f6d20696e636f72726563742060008201527f6f776e6572000000000000000000000000000000000000000000000000000000602082015250565b60006159ec602583613f01565b91506159f782615990565b604082019050919050565b60006020820190508181036000830152615a1b816159df565b9050919050565b7f4552433732313a207472616e7366657220746f20746865207a65726f2061646460008201527f7265737300000000000000000000000000000000000000000000000000000000602082015250565b6000615a7e602483613f01565b9150615a8982615a22565b604082019050919050565b60006020820190508181036000830152615aad81615a71565b9050919050565b6000615abf826141ed565b915060ff8203615ad257615ad1614d9a565b5b600182019050919050565b7f4552433732313a20617070726f766520746f2063616c6c657200000000000000600082015250565b6000615b13601983613f01565b9150615b1e82615add565b602082019050919050565b60006020820190508181036000830152615b4281615b06565b9050919050565b7f4552433732313a207472616e7366657220746f206e6f6e20455243373231526560008201527f63656976657220696d706c656d656e7465720000000000000000000000000000602082015250565b6000615ba5603283613f01565b9150615bb082615b49565b604082019050919050565b60006020820190508181036000830152615bd481615b98565b9050919050565b7f456e74727920666565207061796d656e74206661696c65640000000000000000600082015250565b6000615c11601883613f01565b9150615c1c82615bdb565b602082019050919050565b60006020820190508181036000830152615c4081615c04565b9050919050565b6000615c5282613fa8565b91507fffffffffffffffffffffffffffffffffffffffffffffffffffffffffffffffff8203615c8457615c83614d9a565b5b600182019050919050565b600081519050919050565b600082825260208201905092915050565b6000615cb682615c8f565b615cc08185615c9a565b9350615cd0818560208601613f12565b615cd981613f3c565b840191505092915050565b6000608082019050615cf9600083018761403d565b615d06602083018661403d565b615d136040830185614149565b8181036060830152615d258184615cab565b905095945050505050565b600081519050615d3f81613e67565b92915050565b600060208284031215615d5b57615d5a613e31565b5b6000615d6984828501615d30565b9150509291505056fea26469706673582212204f85c29ad0f8e658d836e654198dd7bf45f21d02101ccf301002304cf69fbe4964736f6c63430008120033",
  "immutableReferences": {},
  "source": "//SPDX-License-Identifier: UNLICENSED\r\n\r\npragma solidity ^0.8.18;\r\n\r\nimport \"../../node_modules/@openzeppelin/contracts/token/ERC721/ERC721.sol\";\r\nimport \"../../node_modules/@openzeppelin/contracts/access/Ownable.sol\";\r\nimport \"../../node_modules/ethereum-datetime/contracts/DateTime.sol\";\r\n\r\ncontract rentalContract is ERC721, Ownable, DateTime{\r\n\r\n    //Variables\r\n    publicNotary public publicnotary;\r\n    bool public lock;\r\n\r\n    //Mappings\r\n    mapping(uint256 => uint256) public assetFee; // Stores the total fees for each asset\r\n    mapping(uint256 => address) public tokenTenant; // Stores the tenant of each asset\r\n    mapping(uint256 => uint256) public totalMonthsUnpaid; // Stores the accumulated months the tenant don't paid\r\n    mapping(uint256 => mapping(bytes32 => uint256)) public tokenCharges; // Stores the monthly charge for each asset\r\n    mapping(uint256 => mapping(bytes32 => uint256)) public tokenPayments; // Stores the monthly payments for each asset\r\n    mapping(uint256 => uint256) public lastTokenPayment; // Stores the date of the last payment made for each asset\r\n    mapping(uint256 => uint256) public rentDate; // Stores the rent date of each asset\r\n    mapping(uint256 => uint256) public tokenMonthlyPrice; // Stores the monthly price of each asset\r\n\r\n    //Events\r\n    event assetBought(address, uint256);\r\n    event monthlyPay(address, uint256);\r\n\r\n    //Structs\r\n    struct publicNotary{ \r\n        string name; \r\n        string firstSurname; \r\n        string id; //Personal ID\r\n        uint256 NotaryID; // Public notary ID\r\n    }\r\n\r\n    constructor(string memory notaryName, string memory firstSurname, string memory id, uint256 NotaryID) \r\n                ERC721(\"LandRent\", \"LR\"){\r\n        //Set the public notary data\r\n        publicnotary = publicNotary(notaryName, firstSurname, id, NotaryID);\r\n    }\r\n\r\n    //Modifiers\r\n    modifier onlyTenant(uint256 tokenId){\r\n        require(msg.sender == tokenTenant[tokenId]);\r\n        _;\r\n    }\r\n\r\n    modifier mutex(){\r\n        require(!lock);\r\n        lock = true;\r\n        _;\r\n        lock = false;\r\n    }\r\n\r\n    function mint(uint256 tokenId, uint256 price) external onlyOwner {\r\n        tokenMonthlyPrice[tokenId] = price; //Price is passed in Wei\r\n        _mint(msg.sender, tokenId); \r\n    }\r\n\r\n    function rentAsset(uint256 tokenId) external payable {\r\n        require(tokenTenant[tokenId] == address(0), \"Token already rented\");\r\n        require(msg.sender != ownerOf(tokenId), \"You are the asset owner\");\r\n        require(assetFee[tokenId] == 0, \"Asset have fees to pay\");\r\n\r\n        uint256 deposit = tokenMonthlyPrice[tokenId]; //Deposit is the equivalent to pay one month\r\n        require(msg.value == deposit, \"Entry fee is not correct\"); \r\n        \r\n        address tokenOwner = ownerOf(tokenId); \r\n                \r\n        rentDate[tokenId] = block.timestamp; \r\n        tokenTenant[tokenId] = msg.sender;\r\n        payEntryFee(tokenOwner, msg.value);\r\n        \r\n        emit assetBought(msg.sender, tokenId);\r\n    }\r\n\r\n    function payEntryFee(address tokenOwner, uint256 price) private {\r\n        (bool success, ) = payable(tokenOwner).call{value: price}(\"\"); //Pay to tokenOwner\r\n        require(success, \"Entry fee payment failed\");\r\n    }\r\n\r\n    //@audit-ok checks, effects, interactions pattern used\r\n    function monthlyPayment(uint256 tokenId) external payable onlyTenant(tokenId){\r\n        bytes32 date = keccak256(abi.encodePacked(getYear(block.timestamp), getMonth(block.timestamp))); // Hashing the year and the month payment\r\n        require(tokenPayments[tokenId][date] == 0, \"Month already paid\");\r\n\r\n        uint256 monthlyPrice = tokenMonthlyPrice[tokenId];\r\n        require(msg.value == monthlyPrice, \"Payment not correct\");\r\n\r\n        address seller = ownerOf(tokenId);\r\n        \r\n        lastTokenPayment[tokenId] = block.timestamp; \r\n        tokenPayments[tokenId][date] = monthlyPrice; \r\n        (bool success, ) = payable(seller).call{value: msg.value}(\"\"); //Pay to the seller\r\n        require(success, \"Monthly payment failed\");\r\n\r\n        emit monthlyPay(msg.sender, tokenId); \r\n    }\r\n\r\n    //Pay previous charges\r\n    // @audit-ok -> not follows checks, effects, interactions pattern but a mutex is used\r\n    function payCharge(uint256 tokenId, uint16 year, uint8 month) public payable onlyTenant(tokenId) mutex {\r\n\r\n        bytes32 date = keccak256(abi.encodePacked(year, month)); //Date hash\r\n                                                                   //The year and month validity should be checked offchain\r\n\r\n        require(tokenCharges[tokenId][date] > 0, \"Month paid previously\");\r\n\r\n        uint256 monthlyPrice = tokenMonthlyPrice[tokenId];\r\n        \r\n        require(msg.value == monthlyPrice, \"Payment must be the monthly price\");\r\n\r\n        address seller = ownerOf(tokenId);\r\n\r\n        (bool success, ) = payable(seller).call{value: msg.value}(\"\"); //Pay to the seller\r\n        require(success, \"Charge payment failed\");\r\n\r\n        tokenCharges[tokenId][date] = 0; //Delete the fee\r\n        tokenPayments[tokenId][date] = monthlyPrice; //Register the payment\r\n        assetFee[tokenId] -= monthlyPrice;\r\n        totalMonthsUnpaid[tokenId] -=1;\r\n\r\n    }\r\n\r\n    function addCharge(uint256 tokenId, uint256 amount, uint16 year, uint8 month) external onlyOwner { \r\n\r\n        bytes32 date = keccak256(abi.encodePacked(year, month)); //Month and year hash\r\n                                                                   //The year and month validity should be checked offchain\r\n        require(tokenPayments[tokenId][date] == 0, \"Month already paid\"); \r\n       \r\n        //Avoid owner set charges for future dates\r\n        if(month >= getMonth(block.timestamp)){\r\n            require(year < getYear(block.timestamp), \"Impossible to add charge for future dates\"); //Owner sets a charge for a month of the past year\r\n        } else if(month < getMonth(block.timestamp)) {\r\n            require(year <= getYear(block.timestamp), \"Impossible to add charge for future dates\"); //Owner sets a charge for a month of the current year\r\n        } \r\n       \r\n        uint16 yearAdquired = getYear(rentDate[tokenId]); \r\n        uint8 monthAdquired = getMonth(rentDate[tokenId]); \r\n\r\n        require(yearAdquired < year || yearAdquired == year && monthAdquired <= month, \"Charges cannot be entered for dates prior to the purchase of the asset\"); \r\n\r\n        assetFee[tokenId] += amount;\r\n        tokenCharges[tokenId][date] += amount; \r\n        totalMonthsUnpaid[tokenId] +=1;\r\n\r\n    }\r\n\r\n    function seizeAsset(uint256 tokenId) external onlyOwner {\r\n        require(totalMonthsUnpaid[tokenId] >= 5, \"Tenant must debt at least 5 months\");\r\n        tokenTenant[tokenId] = address(0);\r\n    }\r\n\r\n    //Check if a month is already paid\r\n    function getPayment(uint256 tokenId, uint16 year, uint8 month) external view returns(uint256){\r\n        bytes32 date = keccak256(abi.encodePacked(year, month)); \r\n        return tokenPayments[tokenId][date]; \r\n    }\r\n\r\n    //Get asset fees\r\n    function getFees(uint256 tokenId) external view returns(uint256){\r\n        return assetFee[tokenId];\r\n    }\r\n\r\n    //Get total of unpaid months\r\n    function getUnpaidMonths(uint256 tokenId) external view returns(uint256){\r\n        return totalMonthsUnpaid[tokenId];\r\n    }\r\n\r\n    //Get monthly price\r\n    function getAssetPrice(uint256 tokenId) external view returns(uint256){\r\n        return tokenMonthlyPrice[tokenId];\r\n    }\r\n\r\n    function accquiredDate(uint256 tokenId) external view returns(uint16, uint8){\r\n        uint16 yearAdquired = getYear(rentDate[tokenId]); \r\n        uint8 monthAdquired = getMonth(rentDate[tokenId]); \r\n        return(yearAdquired, monthAdquired);\r\n    }\r\n\r\n    //Testing-purpose functions, remove it after test phase\r\n    // function currentYear() external view returns(uint16) {\r\n    //     return getYear(block.timestamp);\r\n    // }\r\n\r\n    // function currentMonth() external view returns(uint8) {\r\n    //     return getMonth(block.timestamp);\r\n    // }\r\n\r\n    // function getHashOf(uint16 year, uint8 month) external pure returns(bytes32) {\r\n    //     bytes32 date = keccak256(abi.encodePacked(year, month)); \r\n    //     return date;\r\n    // }\r\n\r\n    // function getCurrentHash() external view returns(bytes32) {\r\n    //     return keccak256(abi.encodePacked(getYear(block.timestamp), getMonth(block.timestamp)));\r\n    // }\r\n}",
  "sourcePath": "D:\\Documentos\\Trabajos\\legalContract\\src\\contracts\\rentalContract.sol",
  "compiler": {
    "name": "solc",
    "version": "0.8.18+commit.87f61d96.Emscripten.clang"
  },
  "schemaVersion": "3.4.8",
  "updatedAt": "2023-04-02T17:26:13.417Z",
  "networkType": "ethereum",
  "devdoc": {
    "events": {
      "Approval(address,address,uint256)": {
        "details": "Emitted when `owner` enables `approved` to manage the `tokenId` token."
      },
      "ApprovalForAll(address,address,bool)": {
        "details": "Emitted when `owner` enables or disables (`approved`) `operator` to manage all of its assets."
      },
      "Transfer(address,address,uint256)": {
        "details": "Emitted when `tokenId` token is transferred from `from` to `to`."
      }
    },
    "kind": "dev",
    "methods": {
      "approve(address,uint256)": {
        "details": "See {IERC721-approve}."
      },
      "balanceOf(address)": {
        "details": "See {IERC721-balanceOf}."
      },
      "getApproved(uint256)": {
        "details": "See {IERC721-getApproved}."
      },
      "isApprovedForAll(address,address)": {
        "details": "See {IERC721-isApprovedForAll}."
      },
      "name()": {
        "details": "See {IERC721Metadata-name}."
      },
      "owner()": {
        "details": "Returns the address of the current owner."
      },
      "ownerOf(uint256)": {
        "details": "See {IERC721-ownerOf}."
      },
      "renounceOwnership()": {
        "details": "Leaves the contract without owner. It will not be possible to call `onlyOwner` functions anymore. Can only be called by the current owner. NOTE: Renouncing ownership will leave the contract without an owner, thereby removing any functionality that is only available to the owner."
      },
      "safeTransferFrom(address,address,uint256)": {
        "details": "See {IERC721-safeTransferFrom}."
      },
      "safeTransferFrom(address,address,uint256,bytes)": {
        "details": "See {IERC721-safeTransferFrom}."
      },
      "setApprovalForAll(address,bool)": {
        "details": "See {IERC721-setApprovalForAll}."
      },
      "supportsInterface(bytes4)": {
        "details": "See {IERC165-supportsInterface}."
      },
      "symbol()": {
        "details": "See {IERC721Metadata-symbol}."
      },
      "tokenURI(uint256)": {
        "details": "See {IERC721Metadata-tokenURI}."
      },
      "transferFrom(address,address,uint256)": {
        "details": "See {IERC721-transferFrom}."
      },
      "transferOwnership(address)": {
        "details": "Transfers ownership of the contract to a new account (`newOwner`). Can only be called by the current owner."
      }
    },
    "version": 1
  },
  "userdoc": {
    "kind": "user",
    "methods": {},
    "version": 1
  }
}